:020000040800F2
:10000000A806002001010008213200082927000865
:1000100009320008050A00089D39000800000000A8
:100020000000000000000000000000000D39000882
:10003000050E000800000000093900089539000885
:100040001B0100081B0100081B0100081B01000820
:100050001B0100081B0100081B0100081B01000810
:100060001B0100081B0100081B0100081B01000800
:100070001B0100081B0100081B0100081B010008F0
:100080001B0100081B0100081B0100081B010008E0
:100090001B0100081B0100081B0100081B010008D0
:1000A0001B0100081B0100081B0100081B010008C0
:1000B0001B0100081B0100081B0100081B010008B0
:1000C0001B0100081B0100081B0100081B010008A0
:1000D0001B0100081B0100081B0100081B01000890
:1000E0001B0100081B0100081B010008DFF80CD0F1
:1000F00000F076FC00480047A9410008A80600204F
:100100000648804706480047FEE7FEE7FEE7FEE7B1
:10011000FEE7FEE7FEE7FEE7FEE7FEE799390008A7
:10012000ED0000082DE9F0410024061B254671F181
:10013000000605DA01240027D0EB070067EB010178
:10014000161E73F1000605DA0027D2EB070201251F
:1001500067EB030300F01EFB86460E4617469C46DF
:10016000AC4204D00025D0EB050E65EB010624B1AE
:100170000020D2EB000760EB030C704631463A4694
:100180006346BDE8F081F0B480EA0102D40F42007A
:10019000B2EB410F02D20246084611464A0042D055
:1001A000C30DDDB2C1F3C752AD1A202D35DAC1F34C
:1001B000160141F4000204B15242C5F1200602FAD0
:1001C00006F12A411044B3EBD05F23D0C4B1012D16
:1001D000A0EBC35009DCF0BC4FF0004202EAC3526E
:1001E000DBB200F5000000F040BB400000F1807081
:1001F00000EBC350A0F1807040EAD170490009E0E3
:10020000490841EAC071A0EBC35000F50000400866
:1002100000EBC350F0BC00F01FBB6142012202EBB7
:100220004101001BF6E7F0BC704781F00041AAE7EE
:1002300080F00040A7E780EA010210B502F0004319
:10024000400022D04A001FD0010E01EB1261C0F322
:100250005600C2F3560240F4000042F40002A0FB34
:10026000022000047F39140400D0401C50EA1240E0
:1002700001D44000491EC2B20C0604EBD010401C51
:100280004008802A02D003E0002010BD20F00100C9
:10029000002900DA0020184310BD30B480EA0102C2
:1002A00002F0004530F0004221F0004013D090B140
:1002B000C30DD40DC2F31601C0F31600E41A41F4C5
:1002C000000140F400027D34914201D3641C00E03F
:1002D0004900002C02DA30BC002070474FF40000C7
:1002E0000023914201D3891A034340084FEA410198
:1002F000F7D151B1914202D14FF0004105E002D255
:100300004FF0010101E06FF0010103EBC4502844FC
:1003100030BC00F0A1BA2DE9FE4F804681EA03000F
:10032000C00F0C46009021F0004123F00045B8EBCF
:100330000200A94105D24046214690461C460B4684
:10034000024623F00040104347D0270DC7F30A00B0
:10035000C3F30A510290401A019040286BDAC3F3AC
:10036000130040F4801B0098924620B10023D2EB8A
:10037000030A63EB0B0B01985946C0F1400250464B
:1003800000F039FA06460D4650465946019A00F0EB
:1003900051FA10EB08006141002487EA115284EA07
:1003A000E7731A4340D0009A62B3019A012A4FEAD8
:1003B000075215DC001B61EB02014FF0004202EA1C
:1003C0000752CDE90042001C41F5801132462B4610
:1003D00000F088FA03B0BDE8F08F40462146F9E707
:1003E000001B61EB0201001C41F5801300185B410A
:1003F0002018A2F5001747EB030140EAD570B619A3
:100400006D4111E06D084FEA360645EAC0754FEAC6
:100410000752001B61EB0201001C41F580114908E5
:100420004FEA30000019514132462B4603B0BDE877
:10043000F04F00F048BA0098012240000023D0EBB2
:10044000020263EBE073009821464FEAE074B8EBD8
:10045000000061EB0401E9E783F000435BE781F012
:10046000004158E72DE9FE4F81EA030404F00044FF
:1004700021F0004100944FF0000B23F0004350EABC
:1004800001045ED052EA03045BD0C3F30A54C1F303
:100490000A552C44A4F2F3340194A0FB0254C1F396
:1004A000130141F48011C3F3130343F4801301FBE0
:1004B000024400FB034E840A970A44EA815447EA47
:1004C0008357A4FB076802958D0A05FB07854FEA51
:1004D000932C04FB0C542705029D4FEA065847EA6B
:1004E0001637B5EB08056EEB070C870E920E47EA40
:1004F000811742EA8312A7FB0201B6EB0B0164EB02
:1005000000042B0D43EA0C335E1844EB1C50DA4612
:100510005146E7FB0201C5F313044FEA0B3343EAEC
:1005200014534FEA0432019C43EA0603A4F10C047D
:100530000294009CCDE900B400F0D4F903B0BDE80A
:10054000F08F00200146F9E72DE9F04D81EA030420
:1005500004F0004B21F0004514464FF0000A23F050
:10056000004150EA050220D054EA01021DD0C5F333
:100570000A570246C5F31303C1F31300C1F30A5629
:1005800040F4801543F48013A7EB0608101BD646F1
:1005900008F2FD3873EB050002D308F1010801E011
:1005A00092185B41B8F1000F03DA00200146BDE864
:1005B000F08D00204FF48011064684460EE0171B94
:1005C00073EB050705D3121B63EB050306434CEAE7
:1005D000010C49084FEA300092185B4150EA0107CC
:1005E000EDD152EA030012D082EA040083EA050149
:1005F000084305D0101BAB4106D20122002306E0C0
:1006000000224FF0004302E06FF0010253101AEB9A
:1006100006004CEB085110EB0A0041EB0B01BDE862
:10062000F04D00F050B9002801DBC0F10040002976
:1006300001DBC1F10041814201D30120704700205C
:100640007047C10F80EAE0700844CA079623002172
:1006500000F00BB996230022114600F006B90EB542
:10066000C10F80EAE0700844CA07002140F233431A
:100670008DE80E000A460B4600F034F903B000BDC9
:100680000EB540F2334102910021CDE900110A4636
:100690000B4600F027F903B000BD00F0004220F047
:1006A0000040C10DC0F3160040F400007F2901DABC
:1006B00000207047962903DCC1F19601C84001E093
:1006C00096398840002AF4D04042704770B5C1F393
:1006D0000A5201F000450024C1F3130140F2FF3338
:1006E00041F480119A4201DA002070BD40F2334398
:1006F0009A42A2F2334203DC524200F08BF800E04F
:1007000090402C43F1D0404270BD00F0004230F0E8
:1007100000400AD0C10D01F56071C0F3160042EA35
:100720000151C2084007114370470020014670473D
:1007300001F0004330B421F0004150EA010206D03C
:100740000A0DA2F56072C1F31301002A02DC30BC6D
:1007500000207047440F44EAC104C100E01830BCD7
:1007600000EBC25000F078B830B50B4601460020CF
:100770002022012409E021FA02F59D4205D303FA63
:1007800002F5491B04FA02F52844151EA2F10102E4
:10079000F1DC30BD2DE9F05F0546002092469B4616
:1007A00088460646814640241BE028464146474687
:1007B000224600F02FF853465A46C01A914110D3F2
:1007C00011461846224600F016F82D1A67EB01086C
:1007D0004F4622460120002100F00DF817EB0009DA
:1007E0004E41201EA4F10104DFDC484631462A4672
:1007F0004346BDE8F09F202A04DB203A00FA02F1CC
:10080000002070479140C2F1200320FA03F31943FE
:1008100090407047202A04DB203A21FA02F00021A0
:10082000704721FA02F3D040C2F120029140084300
:1008300019467047202A06DBCB17203A41FA02F00E
:1008400043EAE07306E041FA02F3D040C2F120022D
:1008500091400843194670470029A8BF7047401CC3
:10086000490008BF20F00100704710B4B0FA80FCC6
:1008700000FA0CF050EA010404BF10BC704749B103
:10088000CCF1200421FA04F411FA0CF118BF012173
:1008900021430843A3EB0C01CB1D4FEA00614FEA53
:1008A000102042BF002010BC704700EBC350104422
:1008B0000029A4BF10BC7047401C490008BF20F0AD
:1008C000010010BC704710B5141E73F1000408DA63
:1008D000401C41F1000192185B411A4301D120F004
:1008E000010010BD2DE9F04D92469B4611B1B1FAC1
:1008F00081F202E0B0FA80F220329046FFF77BFFEF
:1009000004460F4640EA0A0041EA0B0153465A46A4
:10091000084313D0114653EA010019D0C8F1400230
:100920005046FFF777FF05460E4650465946424669
:10093000FFF761FF084305D0012004E02046394657
:10094000BDE8F08D0020054346EAE0762C433743AE
:100950000A986305E40AA0EB08000022FD0A44EAB5
:1009600047540A3002D500200146E9E70105101975
:100970006941DDE9084500196941BDE8F04DA2E78C
:10098000C1F30A52C1F3130140F2FF3341F4801165
:100990009A4202DA00200146704740F233439A42FD
:1009A000A2F2334202DC5242FFF734BFFFF723BF0B
:1009B00030B5041E71F1000404DB4FF000444042E6
:1009C00064EB0101141E73F1000405DB1C464FF0BB
:1009D0000043524263EB0403994208BF904230BD8A
:1009E000064C074D06E0E06840F0010394E807007C
:1009F00098471034AC42F6D3FFF77CFBCC7D00085F
:100A0000EC7D0008FEE70000B0B584B04FF48070C4
:100A10000090002040F6004401900120C4F201043F
:100A20000290032003906946204600F035FA2046E4
:100A30004FF4807100F03AFBA0B100200546012080
:100A400000F0FCF920464FF4807100F02FFB18B144
:100A5000C72D05F10100F1D3C62D03D9012004B043
:100A6000B0BD00BF20464FF4807100F01FFB18B1ED
:100A7000002004B0B0BD00BF002000BF054601202B
:100A800000F0DCF920464FF4807100F00FFB18B93C
:100A9000EF2D05F10100F1D30020EE2D88BF0120DC
:100AA00004B0B0BDF0B585B040F60044C4F2010416
:100AB0004FF480750126032701A920460195CDE951
:100AC0000266049700F0E8F920464FF48071002296
:100AD00000F0F2FA40F2EE2000F0B0F920464FF4B8
:100AE0008071012200F0E8FA0F2000F0A7F9FFF76B
:100AF0008BFFCC2000F098F8442000F095F801A975
:100B00002046CDE90156CDE9036700F0C5F920463E
:100B10004FF48071002200F0CFFA40F2EE2000F096
:100B20008DF920464FF48071012200F0C5FA0F20A4
:100B300000F084F9FFF768FFCC2000F075F8BE20C4
:100B400000F072F800F020F8044600F01DF844EAC6
:100B5000002100F0F80000244A42F82808BF91B2B2
:100B6000C3F6B074084604BF0024CBF6B074FFF798
:100B700076FD02460B4600202146FFF773FCFFF787
:100B8000D7FD05B0F0BD00002DE9F04F85B040F66F
:100B90000044C4F2010401254FF4807A4FF0030BA6
:100BA0000DF1040800264FF0010900BF2046414620
:100BB000CDE901A5CDE9035B00F06EF920464FF4C5
:100BC0008071002200F078FA022000F037F9204608
:100BD0004FF48071012200F06FFA002002A981E831
:100BE000210820464146CDF804A000F055F90C201C
:100BF00000F024F920464FF4807100F057FA0746C0
:100C000000284FF0320018BF012700F017F9F80153
:100C1000310640EA5166B9F1080F09F10109C5D35F
:100C2000304605B0BDE8F08F2DE9F04385B00746AA
:100C30004FFA80F84FF480700190012040F6004494
:100C4000CDE902000320C4F20104049001A920466A
:100C500000F022F920464FF48071002207F00105D0
:100C600000F02AFA02204FF00209002D08BF3C20B4
:100C700000F0E4F820464FF48071012200F01CFAE5
:100C80003C203C26002D08BF022000F0D7F820466B
:100C90004FF48071002207F0020500F00DFA0220E7
:100CA000002D08BF3C2000F0C9F820464FF48071A9
:100CB000012200F001FA3C20002D08BF022000F0C4
:100CC000BDF820464FF48071002207F0040500F0C3
:100CD000F3F90220002D08BF3C2000F0AFF82046B9
:100CE0004FF48071012200F0E7F93C20002D08BF8D
:100CF000022000F0A3F820464FF48071002207F094
:100D0000080500F0D9F90220002D08BF3C2000F0B2
:100D100095F820464FF48071012200F0CDF93C2077
:100D2000002D08BF022000F089F820464FF48071A2
:100D3000002207F0100500F0BFF90220002D08BFC7
:100D40003C2000F07BF820464FF48071012200F037
:100D5000B3F93C20002D08BF022000F06FF82046B8
:100D60004FF48071002207F0200500F0A5F9022061
:100D7000002D08BF3C2000F061F820464FF4807140
:100D8000012200F099F93C20002D08BF022000F05C
:100D900055F820464FF48071002207F0400500F01E
:100DA0008BF90220002D08BF3C2000F047F82046B8
:100DB0004FF48071012200F07FF93C20002D08BF24
:100DC000022000F03BF820464FF48071002200F032
:100DD00073F9B8F1FF3FC8BF4FF03C09484600F037
:100DE0002DF820464FF48071012200F065F9B8F12A
:100DF000FF3FC8BF0226304600F020F805B0BDE82E
:100E0000F083000070470000EFF3108072B600BF5F
:100E1000FEE70000B0B5044600F054F9054640F284
:100E20000000C2F200000078611C18BF044400BF3B
:100E300000F048F9401BA042FAD3B0BDB0B540F273
:100E400018246FF00501C2F20004081A216885B267
:100E500020464D6201F0CCF94FF6F970854213D867
:100E600020684FF6FA7100BF426A92B28A420BD2F2
:100E7000426A92B28A4207D2426A92B28A4203D24C
:100E8000426A92B28A42EFD340F21820C2F20000C6
:100E9000BDE8B04001F0E0B92DE9F04F82B041F279
:100EA0000042C4F201020E680423904208BF0323EB
:100EB000002E009300F0F68040F20C4E4FF6FF7CBF
:100EC000C4F2010E00220124C1F2100C4FF0000AFE
:100ED0004FF0000943E000BF012502F00C040F278A
:100EE000A7402BEA070705FA04F43C4343F82640E1
:100EF000D1F804B040F20045C4F201055FEACB33FB
:100F00002B6854BF23EA080343EA08032B606B688D
:100F10005FEA8B3454BF23EA080343EA08036B609B
:100F20005FEACB24AB6854BF23EA080343EA080313
:100F30005FEA8B24AB60DEF800304FF0010454BF51
:100F400023EA080343EA0803CEF800300E680AF1EA
:100F5000010A36FA0AF302F1040200F0A38004FA4F
:100F60000AF816EA080FF1D04B68634512DC122B21
:100F700056D8DFE803F0350B4549555555555555BD
:100F8000555555555555554D510000BFD1F80C904C
:100F900046E000BF4FF6FF77C1F22107BB420FDCEE
:100FA0000027C1F21107BB421AD00027C1F2120775
:100FB000BB4215D00027C1F22107BB4210D02FE061
:100FC0000027C1F22207BB420AD00027C1F2310735
:100FD000BB4205D00027C1F23207BB4220D100BF7F
:100FE0008B684BB1012B14BFC0F81480C0F810807F
:100FF0004FF0080914E000BF4FF0040910E000BFF3
:10100000CB6803F108090BE04FF0000908E000BFCE
:10101000CB6803F1040903E0CB6803F10C0900BFBE
:1010200013460546BAF1080F24BF203B04352E684D
:101030000F279F40BE4309FA03F333432B60CB795C
:10104000DB067FF583AF41F21804C4F20204236883
:101050004FEA9A0643F001032360236840F6000438
:1010600003F001030193019B40F20043C4F201032A
:10107000A3F57E7353F826B0C4F20104A0420FD04A
:1010800040F60044C4F20104A0423FF425AF41F20F
:101090000004C4F20104009DA04208BF02251CE721
:1010A00000251AE702B0BDE8F08F00008068084014
:1010B00018BF012070470000002A08BF0904016121
:1010C0007047000040F2A420C2F2000000687047A0
:1010D00070B5B8B3044690F83D0028B9002084F8F4
:1010E0003C00204600F0BAFB242084F83D00206834
:1010F000016821F001010160016841F400410160D3
:10110000016821F40041016000F08CFD48F280414B
:10111000C0F21E0140F60013D4F804E088424FF0FC
:101120000001C0F23D0348F2A16C4FF0000238BF4D
:1011300001219842C0F2010C38BF0122E64538BFB8
:101140000A460AB1012070BD4DF68361C4F21B311D
:10115000A0FB01122168950C4B684FF4967623F0A2
:101160003F0343EA9243754344F6D3564B60C1F2C2
:1011700062060B6AA5FB0656B50923F03F03E64558
:1011800038BF950C6A1C1A430A62CA6948F2A06605
:101190004CF6FF73C0F20106B64522EA03020BD8F3
:1011A00001384FEA4E03B0FBF3F001306FF31F300C
:1011B000042898BF04201EE0A368013863B11923F6
:1011C0000EFB03F3B0FBF3F001306FF31F3078B187
:1011D00000F5804008E000BF0EEB4E03B0FBF3F0DB
:1011E00001306FF31F3028B100F5004003E000BF6D
:1011F000012000E001201043C8610868D4E90723FA
:1012000020F0C000104318430860886848F2FF329D
:1012100004F10C0690434CCE18431043A569886036
:10122000C86820F0FF0030432843C860086840F0D9
:101230000100086000202021206484F83D10206314
:1012400084F83E0070BD00002DE9F04F85B00446E3
:1012500000201E4617460D460490FFF733FF94F812
:101260003D10202923D1804620688169890719D53E
:10127000FFF728FFA0EB08001928F5D9002020214E
:10128000206384F83D1084F83E00206C04F13C0992
:1012900040F0200020640220002189F8001005B0F1
:1012A000BDE8F08FA14619F83C1F012904D10220A6
:1012B00005B0BDE8F08F00BF012289F80020036867
:1012C000DDE90F1A0E9ADB0703D1036843F001032F
:1012D0000360036823F400630360222084F83D0068
:1012E000402084F83E000020206462626185608DA9
:1012F000294620850020CFF6FF70E06220463A465E
:101300003346CDF800A0CDF8048001F00FFA18B1F3
:10131000012005B0BDE8F08F208D022810D00128F3
:1013200024D0002838D1002003902068416903911F
:10133000816903910399016841F40071016037E00C
:101340002068016841F400610160EFF3108072B61B
:1013500000200390206841690391816903910399FA
:10136000016821F48061016062B621E020680168B3
:1013700021F480610160EFF3108072B600200390C9
:10138000206841690391816903910399016841F4DF
:101390000071016062B60BE02068016841F4806171
:1013A00001600021039141690391806903900398D2
:1013B000208D002800F0238140F2240B4BF2895746
:1013C0000AF10105C2F2000BC1F2F847232680B2F0
:1013D000032819D8022845D001286FD1BAF1000F8F
:1013E00000F0FA802068014651F8142F520600F1EF
:1013F000F7800868C00600F12F81FFF763FEA0EBBD
:1014000008005045EED91CE1BAF1000F12D000BF20
:101410002068014651F8142F520610D40868C006FF
:1014200000F11A81FFF74EFEA0EB08005045EFD9FE
:1014300007E100BF20684169490640F1FB8000696F
:10144000616A0870606A2268411C208D61620138FF
:101450002085638D013B638553695B0740F1CC8038
:101460001069BFE020684169490711D4002D00F0E0
:101470009380BAF1000F00F0E280FFF723FEA0EBAB
:101480000800504500F2DD80206840694007F4D52F
:10149000EFF3108072B62068616A026842F400724D
:1014A000026000690870606A218D01306062481E28
:1014B0002085608D0138608562B668E020684169EA
:1014C000490710D4002D77D0BAF1000F00F0B78093
:1014D000FFF7F8FDA0EB0800504500F2B28020684D
:1014E00041694907F4D5016821F480610160EFF397
:1014F000108072B62068616A00690870606A218D88
:101500000130013960622185618D01396185DBF827
:101510000010C908A1FB0712110A71430491049934
:10152000013904910499002976D021684A6952074B
:101530001DD4049901390491049900296CD02168C3
:101540004A69520713D40499013904910499002976
:1015500062D021684A69520709D40499013904917B
:101560000499002958D021684A695207D7D50A68DA
:1015700042F400720A6009690170606A218D0130CD
:101580006062481E2085608D0138608562B62068E3
:10159000616A006926E000BF416949073FF578AFFD
:1015A000416949075CBF41695FEA41713FF570AF2E
:1015B00041694907F0D56BE74169490793D441690F
:1015C00049075CBF41695FEA41713FF58CAF4169F2
:1015D0004907F1D587E700BF20684169490629D549
:1015E0000069616A0870606A218D01306062481E7E
:1015F0002085618D0139618501047FF4E8AE2020EA
:1016000084F83D00002084F83E00002189F8001095
:1016100005B0BDE8F08F00BF00202021206384F8D2
:101620003D1084F83E00206C40F02000206462B63B
:101630001EE000BF50F8141FC90601460CD4FFF786
:1016400041FD00202021206384F83D1084F83E00F5
:10165000206C40F020000AE06FF0100008600020CD
:101660002021206384F83D1084F83E00206C206423
:101670000120002189F8001005B0BDE8F08F0000BE
:101680002DE9F04383B0994616460F460446FFF70E
:1016900019FD94F83D1020291CD105462068816968
:1016A000890713D5FFF70EFD401B1928F6D9002036
:1016B0002021206384F83D1084F83E00216C41F025
:1016C0002001216484F83C0004E000BF94F83C1041
:1016D000012903D1022003B0BDE8F083012284F880
:1016E0003C200368DDE90B180A9ADB0703D1036885
:1016F00043F001030360036823F4006303602120C7
:1017000084F83D00402084F83E000020206462629E
:101710006185608D394620850020CFF6FF70E0623C
:10172000204632464B46CDF80080019501F08EF9F7
:1017300020B1012003B0BDE8F08300BF208D002858
:1017400050D0206808F10106014651F8142F120606
:101750002CD49EB1B8F1000F5AD000BF08684005E4
:101760005ED4FFF7AFFC401B404556D820680146C9
:1017700051F8142F1206F1D518E000BF0A6852057F
:101780004ED40A68120611D40A68520548D40A6871
:1017900012060BD40A68520542D40A68120605D410
:1017A0000A6852053CD40A681206E7D5626A1146F7
:1017B00011F8013B0361238D6162591E2185678DFC
:1017C000013F678547697F070AD50F0408D0517824
:1017D0000161911C6162991E2185628D013A6285C9
:1017E0000904B1D1204641462A4601F069FA38BBC6
:1017F0002068016841F400710160202084F83D00F8
:10180000002084F83E0084F83C0003B0BDE8F0837B
:101810000868400504D4FFF755FC202004E000BF11
:101820006FF480600860042000212022216384F886
:101830003D2084F83E10226C1043206484F83C1054
:10184000206C04287FF475AF2068016841F40071B2
:101850000160012003B0BDE8F083000010B586B040
:10186000006845F60001C4F2000188424FF0000113
:10187000CDE90411CDE902112AD045F20041C4F2AC
:101880000001884248D141F21804C4F202042068E1
:1018900002A940F008002060206800F008000190D4
:1018A0000198C0200290122003900320059040F67A
:1018B0000040C4F20100FFF7EFFA606840F4001046
:1018C0006060606800F400100190019806B010BDDF
:1018D00041F21804C4F20204206802A940F0080092
:1018E0002060206800F00800019001984FF44060EB
:1018F0000290122003900320059040F60040C4F2AD
:101900000100FFF7C9FA606840F480006060606819
:1019100000F480000190019806B010BD40F2000074
:1019200040F2A421C2F20000C2F2000100780A686D
:10193000104408607047000080B542F20000C4F215
:101940000200016841F010010160032000F07AF804
:101950000F2000F005F800F027F8002080BD0000FF
:1019600070B540F20006C2F2000640F2240132785F
:10197000C2F200014FF47A730968B3FBF2F2044635
:10198000B1FBF2F1084600F04FFB0F2C4FF00105C0
:1019900008D838B94FF0FF3021460022002500F06A
:1019A00025F87460284670BD82B041F21800C4F278
:1019B00002000168022241F001010160016801F0AA
:1019C000010101910199416841F0805141604068F5
:1019D00000F08050009000980420C4F201000168DB
:1019E00062F31A61016002B07047000010B54EF654
:1019F0000C5CCEF2000CDCF80030C3F3022E8EF04B
:101A00000704042C28BF0424BEF103034FF0FF3E5B
:101A10000EFA04F438BF0023A14399400EFA03F3F1
:101A20009A43114300F00F02043A624409010C3258
:101A300000F16043B0F1FF3FC8BF03F5644211708D
:101A400010BD00004EF60C51CEF200010A684FF6B0
:101A5000FF031A4060F30A2242F0806040F0FD70FC
:101A6000086070472DE9F04381B0002800F08580C0
:101A700042F20008C4F202080446D8F800000D46FD
:101A800000F0070088420CD2D8F8000020F00700D0
:101A90002843C8F80000D8F8000000F00700A8426A
:101AA0006BD1206841F204098107C4F2020917D5FD
:101AB000410705D5D9F8001041F4E061C9F80010DC
:101AC000010705D5D9F8001041F46051C9F800109C
:101AD000D9F80010A26821F0F0011143C9F80010F4
:101AE000C00741D1D8F8000000F00700A8420CD987
:101AF000D8F8000020F007002843C8F80000D8F804
:101B0000000000F00700A84237D12068410707D540
:101B1000D9F80010E26821F4E0611143C9F800101F
:101B2000000708D5D9F80000216920F4605040EA88
:101B3000C100C9F80000D9F8002002F00C00082804
:101B400041F20020C0F27A0050D147F6AA53C2F306
:101B50008341C0F60003595CD2033BD440F6001029
:101B6000C0F23D00484341E0606802280AD00128E5
:101B70002AD159F8041C890308D4012001B0BDE81A
:101B8000F08300BF59F8041C8901F6D5D9F800107C
:101B900021F003010843C9F80000FFF793FA064655
:101BA00041F28837D9F80000616800F00C00B0EB12
:101BB000810F97D0FFF786FA801BB842F2D9032035
:101BC00001B0BDE8F08300BF59F8041C8907D4D5E3
:101BD000DCE700BFD9F8002045F2AC13C2F3404265
:101BE000C0F600039A5C4843B0FBF2F0D9F800104D
:101BF00045F2AE12C1F30311C0F60002515C40F28F
:101C0000240220FA01F140F20400C2F20000006850
:101C1000C2F200021160FFF7A3FE002001B0BDE890
:101C2000F083000040F2240041F20401C2F20000FF
:101C3000C4F202010068096845F2BE12C1F3022134
:101C4000C0F60002515CC8407047000040F224001A
:101C500041F20401C2F20000C4F202010068096806
:101C600045F2BE12C1F3C221C0F60002515CC84069
:101C7000704700002DE9F04182B0002868D004468A
:101C8000007841F20006C007C4F2020625D0706851
:101C900000F00C0004281BD0706800F00C0008282D
:101CA00002D17068C00313D46068002800F0688116
:101CB000B0F5A02F00F07C81B0F5803F00F07C8172
:101CC000306820F480303060306820F4802076E185
:101CD0003068800301D56068D0B32078800718D5BC
:101CE000706810F00C0F07D0706800F00C00082826
:101CF0006ED17068C0036BD43068800702D520694C
:101D0000012825D13068616920F0F80040EAC1005F
:101D10003060207800071FD42078400732D4E5696E
:101D200095B1706800F00C00082840F08F80012DFC
:101D30000ED07068216A00F480328A4208D1616A4C
:101D400000F47010884203D1002002B0BDE8F08199
:101D5000012002B0BDE8F081A069002862D0002017
:101D6000C4F242200121C0F88014FFF7ABF9054608
:101D7000706A800700F18C80FFF7A4F9401B0228ED
:101D8000F6D92AE1F06910F0805808D1F06940F0E6
:101D90008050F061F06900F080500090009847F2A8
:101DA0000007C4F200073868C00529D4386840F439
:101DB00080703860FFF786F9054600BF3868C005B7
:101DC0001ED4FFF77FF9401B6428F7D905E100BF57
:101DD0002069002840F20000C4F2422000F0828016
:101DE00001210160FFF76EF9054600BF30688007EA
:101DF0003FF588AFFFF766F9401B0228F6D9ECE003
:101E0000E068002800F08080052800F09780012815
:101E100000F09880306A20F001003062306A20F0D3
:101E2000040092E00020C4F242200021C0F8801497
:101E3000FFF748F9054600BF706A80077FF56CAF71
:101E4000FFF740F9401B0228F6D9C6E00027C4F28C
:101E5000422700203866FFF735F9022D05460BD1E1
:101E60003068800140F1BE80FFF72CF9401B02284A
:101E70004FF00300F4D968E7306880017FF564AF64
:101E8000FFF720F9401B02284FF00300F4D95CE76C
:101E900040F22400C2F20000006844F6D351C1F2BF
:101EA0006201A0FB0101480A019000BF00BF019838
:101EB000411E002801913FF42FAF00BF0198411E41
:101EC000002801913FF428AF00BF0198411E00286F
:101ED00001913FF421AF00BF0198411E00280191FC
:101EE000E4D119E700210160FFF7ECF8054600BFD7
:101EF000306880077FF50DAFFFF7E4F8401B02283C
:101F00004FF00300F4D920E7306A20F0010030627E
:101F1000306A20F004003062FFF7D4F8054641F241
:101F2000883700BF306A800720D5FFF7CBF8401B09
:101F3000B8424FF00300F5D907E700BF306A40F020
:101F400004003062306A40F001003062FFF7BAF8F6
:101F5000054641F2883700BF306A800706D4FFF794
:101F6000B1F8401BB842F7D937E000BFB8F1000F15
:101F70007FF4D5AEF06920F08050F061CFE600BF6D
:101F8000306820F480303060306820F48020306089
:101F9000FFF798F8054600BF306880037FF59DAED7
:101FA000FFF790F8401B64284FF00300F4D9CCE60B
:101FB000306840F480203060306840F48030306019
:101FC000FFF780F8054600BF306880033FF585AE17
:101FD000FFF778F8401B6428F6D9032002B0BDE86B
:101FE000F08100BF206AB0F5803F05D17168A2681A
:101FF00021F40031114371607168626A21F4741137
:1020000010430843706001203866FFF75BF8044610
:10201000306880013FF598AEFFF754F8001B0228A6
:102020004FF00300F4D990E6411E0020B0EB116F91
:102030001CBF012070474EF21002CEF20002516028
:102040004EF62351CEF20001F0230B700721906071
:102050001160704710B590F83C20012A4FF0020241
:1020600033D080F83D200268D2F804E0D2F808C0EE
:102070000C682EF07003234340F2FF74C4F2000496
:10208000A24253600ADCB2F1804F13D040F2004309
:10209000C4F200039A420DD011E000BF42F60043A3
:1020A000C4F201039A4205D040F60003C4F20003D3
:1020B0009A4204D149682CF08003194391600121B0
:1020C000002280F83D1080F83C20104610BD000032
:1020D000002804BF0120704710B5044690F83D0069
:1020E00028B9002084F83C00204600F067F8022060
:1020F00084F83D00206840F2FF730268C4F20003D8
:1021000042F6004C9842C4F2010C15DCB0F1804F4D
:102110001AD040F20041C4F20001884214D0984223
:1021200018DCB0F1804F1DD040F20041C4F2000134
:10213000884217D01AE000BF604505D040F6000184
:10214000C4F200018842EAD1A16822F070020A4379
:102150009842E6DD604505D040F60001C4F200017A
:10216000884203D1216922F440720A43A36922F014
:102170008001D4F804E0E268194360450160C2625E
:10218000C0F828E002D16169CCF83010012141612A
:10219000002084F8461084F83E1084F83F1084F83C
:1021A000401084F8411084F8421084F8431084F8F9
:1021B000441084F8451084F83D1010BD81B00068CB
:1021C00042F60041C4F20101884201D001B07047DB
:1021D00041F21800C4F20200016841F4006101609C
:1021E000006800F400600090009801B070470000A3
:1021F00090F83D1001291CBF01207047022180F892
:102200003D10006840F2FF71C4F20001884209DC11
:10221000B0F1804F12D040F20041C4F20001884278
:102220000CD012E042F60041C4F20101884205D010
:1022300040F60001C4F20001884206D1816801F035
:102240000701062904BF00207047016841F0010121
:1022500001600020704700000146006841F2111340
:10226000026A1A4204D00122002081F83D20704702
:10227000026A40F244431A42F5D1026822F0010298
:1022800002600122002081F83D20704780B590F85F
:102290003C20012A4FF0020200F0BF8080F83D2070
:1022A000D0F800C04FF67772DCF8083023EA02025B
:1022B000CCF808200B683F2B1CDD5F2B20DD602B4A
:1022C00050D0B3F5005F6DD0702B40F0A080D1E905
:1022D00001E3C968DCF8082043EA0E0322F47F42D8
:1022E00043EA01211143CCF80810DCF8081041F052
:1022F00077018AE01F2B29DC63B3102B2AD086E0FC
:10230000402B63D0502B40F08280D1F804E0C968A4
:10231000DCF82030DCF8202022F00102CCF820206C
:10232000DCF8182022F0F00242EA011123F00A0240
:1023300042EA0E02CCF81810CCF82020DCF8081085
:1023400041F0570121F020015FE000BF202B01D0B8
:10235000302B5CD1DCF8081021F07001194341F0FA
:10236000070152E0D1F804E0C968DCF8203023F01E
:102370001003CCF82030DCF81830DCF8202023F4EF
:10238000704322F0A00243EA013142EA0E12CCF877
:102390001810CCF82020DCF8081041F0670121F07B
:1023A000100132E0D1E901E3C968DCF8082043EA12
:1023B0000E0322F47F4243EA01211143CCF80810B6
:1023C000DCF8081041F480411FE000BFD1F804E0C0
:1023D000C968DCF82030DCF8202022F00102CCF8BB
:1023E0002020DCF8182022F0F00242EA011123F04C
:1023F0000A0242EA0E02CCF81810CCF82020DCF8D1
:10240000081041F0470121F03001CCF808100121FB
:10241000002280F83D1080F83C20104680BD00006E
:10242000002804BF0120704710B5044690F83D0015
:1024300028B9002084F83C00204600F05FF82420F2
:1024400084F83D002068D4E90212C36823F40053E5
:10245000C360036923F440531A430261D4E904239F
:102460001143C268194341F20C639A431143C1609E
:102470004169A26921F44071114343F60002C4F29C
:1024800001029042416103D0FFF7CCFB02E000BFA4
:10249000FFF7DCFB6268192148439100B0FBF1F0C3
:1024A00048F21F51C5F2EB11A0FB01235A096FF04E
:1024B000630302FB0300322303EB0010A0FB0101C6
:1024C000F02303EA5113206803EB0212C1F3431116
:1024D00011448160016921F490410161416921F059
:1024E0002A014161C16841F40051C16000202021EE
:1024F000206484F83D1084F83E1010BD70B586B09D
:1025000040F60004C4F20104006804F540510026BE
:102510008842049602D006B070BD00BF41F2180098
:10252000C4F20200016802AD41F48041016001681B
:1025300001F4804101910199016841F004010160B9
:102540000068294600F00400019001984FF40070E3
:10255000029002200390032005902046FEF79CFC89
:102560004FF48060CDE90206204629460496FEF726
:1025700093FC06B070BD00002DE9F04381B0044625
:1025800090F83D0020280DD10F4600294FF00100A2
:1025900000F092801646002A00F08E8094F83C00ED
:1025A000012803D1022001B0BDE8F083012084F8A6
:1025B0003C004FF0000921201D46C4F8409084F8EB
:1025C0003D00FEF77FFDA684E684A1688046B1F554
:1025D000805F25D1206900281CBF38464F463E4603
:1025E000074684F83C90E08C00B3681C20D0002D96
:1025F00066D120680BE000BF36F8021B00276FF39E
:102600005F214160E18C0139E184E18C81B3016893
:10261000090675D5002FEFD017F8011BF1E700BFB1
:10262000002684F83C90E08C0028DED120681FE072
:10263000206802E00168090609D40168090606D489
:10264000016809065CBF01685FEA0161F2D51FB14C
:1026500017F8011B05E000BF36F8021B00276FF3D7
:102660005F214160E18C0139E184E18C0029E4D1F2
:10267000016849061CD4002D42D0691C0ED10168A6
:10268000490615D4016849065CBF01685FEA4161EB
:102690000ED401684906F2D50AE000BFFEF712FD2C
:1026A000A0EB08012068A9422AD800684006F5D5A9
:1026B000202084F83D00002001B0BDE8F08300BF79
:1026C000206800BF0168090608D4FEF7FBFCA0EBF8
:1026D00008012068A942F5D912E000BF17B117F828
:1026E000011B04E036F8021B00276FF35F214160F5
:1026F000E18C0139E184E18C0029E3D1B8E700BF26
:10270000C16821F4D071C160416921F001014161CA
:10271000202084F83D0084F83E00002084F83C002E
:10272000032001B0BDE8F083FEE700002DE9F0438F
:1027300083B00446006899460368904643F480627B
:10274000026002680B9D42F48072026042690A9E38
:10275000D2070F461DD1711C11D0002E00F036811A
:10276000FEF7B0FC401BB04200F2328120684169A4
:10277000C907F5D00DE000BF4169C90709D141691A
:10278000C90706D14169C90704BF41695FEAC17140
:10279000F2D007F0FE0707614169890738D4416923
:1027A000721C01F4806111D049BB002E00F03A8107
:1027B000FEF788FC401BB04200F236812068416978
:1027C000890725D441694905F2D518E0B9B94169AD
:1027D00089071DD44169490511D44169890717D476
:1027E000416949050BD44169890711D441694905FB
:1027F00005D4416989070BD441694905E7D50168CA
:1028000041F4007101606FF48061416104200CE1CA
:1028100000210291014651F8142F02924A68029257
:10282000029A0A68120620D4002E00F0AB80721CB7
:1028300051D10A68520500F1AD800A68120614D41D
:102840000A68520500F1A6800A6812060DD40A68CB
:10285000520500F19F800A68120606D40A685205E4
:1028600000F198800A681206E3D5B9F1010F45D04E
:102870004FEA18210161014651F8142F12063DD488
:10288000002E00F07F80721C2AD10A68520500F1E8
:1028900081800A68120631D40A6852057AD40A681F
:1028A00012062BD40A68520574D40A68120625D47D
:1028B0000A6852056ED40A681206E6D51EE000BF0B
:1028C000FEF700FC401BB04261D82068014651F879
:1028D000142F1206C9D408684005F1D55AE000BF8C
:1028E0000868400556D4FEF7EDFB401BB0424ED8B9
:1028F0002068014651F8142F1206F1D55FFA88F1CD
:102900000161014651F8142F12061AD4D6B3721C75
:1029100033D10A6852053DD40A68120611D40A68F8
:10292000520537D40A6812060BD40A68520531D40E
:102930000A68120605D40A6852052BD40A681206E2
:10294000E7D50168002241F48071016020464FF014
:1029500001113346009500F007FA002850D0206896
:10296000006844E0FEF7AEFB401BB0420FD8206881
:10297000014651F8142F1206E3D408684005F1D53A
:1029800008E000BF0868400504D4FEF79BFB202048
:1029900004E000BF6FF48060086004200021202262
:1029A000216384F83D2084F83E10226C104320649B
:1029B00084F83C10206C042843D12068016841F45D
:1029C00000710160012003B0BDE8F083FEF77AFBDF
:1029D00000202021206384F83D1084F83E00216C03
:1029E00041F020012164216884F83C000868C0059A
:1029F00044BF4FF400702064032003B0BDE8F083AF
:102A0000206847F0010101610221C0F20101204666
:102A100032462B4600F050FA002818BF012003B0C0
:102A2000BDE8F083FEF74EFB202000212022216329
:102A300084F83D2084F83E10226C1043206484F812
:102A40003C10012003B0BDE8F08300002DE9F04305
:102A500081B00446006890460268099D42F4807285
:102A600002604269089E9946D2070F461DD1711C2B
:102A700011D0002E00F0D280FEF724FB401BB042A4
:102A800000F2CE8020684169C907F5D00DE000BF93
:102A90004169C90709D14169C90706D14169C90717
:102AA00004BF41695FEAC171F2D007F0FE01016124
:102AB0004169890738D44169721C01F4806111D0E1
:102AC00049BB002E00F0E880FEF7FCFA401BB04244
:102AD00000F2E48020684169890725D441694905ED
:102AE000F2D518E0B9B9416989071DD44169490592
:102AF00011D44169890717D4416949050BD441694B
:102B0000890711D44169490505D4416989070BD466
:102B100041694905E7D5016841F4007101606FF42E
:102B2000806141610420BAE000210091014651F822
:102B3000142F00924A680092009A0A6812061ED466
:102B4000002E00F08580721C4DD10A68520500F1FC
:102B500087800A68120612D40A68520500F1808044
:102B60000A6812060BD40A68520579D40A6812065C
:102B700005D40A68520573D40A681206E5D5B9F17E
:102B8000010F43D04FEA18210161014651F8142F7B
:102B900012063BD4002E5BD0721C29D10A68520564
:102BA0005ED40A68120631D40A68520558D40A68FD
:102BB00012062BD40A68520552D40A68120625D48C
:102BC0000A6852054CD40A681206E7D51EE000BF19
:102BD000FEF778FA401BB0423FD82068014651F812
:102BE000142F1206CBD408684005F1D538E000BF99
:102BF0000868400534D4FEF765FA401BB0422CD873
:102C00002068014651F8142F1206F1D55FFA88F1B9
:102C10000161002001B0BDE8F08300BFFEF752FA69
:102C200000202021206384F83D1084F83E00216CB0
:102C300041F020012164216884F83C000868C00547
:102C400044BF4FF400702064032001B0BDE8F0835E
:102C50000868400504D4FEF735FA202004E000BFE0
:102C60006FF480600860042000212022216384F832
:102C70003D2084F83E10226C1043206484F83C1000
:102C8000206C042817D12068016841F400710160AC
:102C9000012001B0BDE8F083FEF714FA20200021E6
:102CA0002022216384F83D2084F83E10226C1043DA
:102CB000206484F83C10012001B0BDE8F0830000DE
:102CC00070B50368044653F8140F400737D40E4616
:102CD000F1B1701C24D100BF1868400532D41868C7
:102CE00040072CD4186840052CD41868400726D417
:102CF0001868400526D41868400720D41868400595
:102D000020D4186840074FF0000048BF70BDE3E7CB
:102D10001868400516D4FEF7D5F9202016E000BF4C
:102D2000154600BF186840050CD4FEF7CBF9401BD0
:102D3000B042F2D8236853F8140F4007F2D50020B0
:102D400070BD00BF6FF48060186004200021202255
:102D5000216384F83D2084F83E10226C10432064E7
:102D6000012084F83C1070BD2DE9F0410546144661
:102D7000DDF8188001F47F002A681E46B0F5803F18
:102D80008FB241D150693840C01BB0FA80F0400981
:102D9000A0427BD1701C2DD0002E7BD0FEF792F983
:102DA000A0EB0800B04277D8286840693840C01BC3
:102DB000B0FA80F04009A042F0D00020BDE8F081D8
:102DC00050693840C01BB0FA80F04009A0425DD184
:102DD00050693840C01BB0FA80F04009A04255D17C
:102DE00050693840C01BB0FA80F04009A0424FF053
:102DF00000005FD150693840C01BB0FA80F0400934
:102E0000A042DDD042E000BF90693840C01BB0FA5C
:102E100080F04009A04239D1701C1FD0D6B300BF4A
:102E2000FEF750F9A0EB0800B04235D82868806959
:102E30003840C01BB0FA80F04009A042F0D000201A
:102E4000BDE8F08190693840C01BB0FA80F04009BD
:102E5000A0424FF0000018BFBDE8F08190693840F3
:102E6000C01BB0FA80F04009A0420FD190693840F1
:102E7000C01BB0FA80F04009A04207D190693840E9
:102E8000C01BB0FA80F04009A042DBD00020BDE8B2
:102E9000F08100BFFEF716F900202021286385F895
:102EA0003D1085F83E00296C41F02001296485F829
:102EB0003C000120BDE8F081F0B581B00446006817
:102EC0001D4643698FB203EA0701B94202D10020CF
:102ED00001B0F0BD41691646013201F480610FD0A6
:102EE00059BB9EB3FEF7EEF8401BB04230D82068C5
:102EF00041693940B942EAD041694905F2D51CE03F
:102F0000D9B941693940B942E1D04169490514D480
:102F100041693940B942DAD0416949050DD4416966
:102F20003940B942D3D04169490506D44169394095
:102F3000B942CCD041694905E3D5016841F400713B
:102F400001606FF480614161042002E0FEF7BAF88D
:102F5000202000212022216384F83D2084F83E10A7
:102F6000226C1043206484F83C10012001B0F0BDB5
:102F70002DE9F04381B040F26C09C2F20009044629
:102F800099F80000012C03D1E0B3013889F8000062
:102F9000C0B2072804D94CB301B0BDE8F08300BF2C
:102FA0001BA10A5C1CA10D5C1DA140F600470E5C34
:102FB0001DA1C4F2010711F8008038464FF480517A
:102FC000FEF77AF838464FF400512A46FEF774F8B7
:102FD00038464FF480413246FEF76EF838464FF4DB
:102FE00000414246FEF768F8002CD5D199F8000060
:102FF000411CC8B2083818BF084689F8000001B063
:10300000BDE8F083082089F8000001B0BDE8F08336
:1030100001010000000000010001010100000000AA
:10302000000000010101000000000000000101019A
:10303000F0B585B041F21800C4F20200016840F614
:10304000004441F0100101600168C4F2010401F084
:103050001001019101990168002241F020010160F5
:10306000016801F0200101910199016841F0080116
:103070000160016801F0080101910199016841F0C6
:103080000401016000684FF2183100F00400019063
:1030900001982046FEF710F84FF218200190022008
:1030A00001AD012603900327204629460296049786
:1030B000FDF7F2FE4FF48070CDE901062046294667
:1030C000CDE90367FDF7E8FE05B0F0BD80B540F23D
:1030D000701045F20041C2F20000C4F2000148F253
:1030E000A06200234FF4804CC0F2010280E80E0081
:1030F000C0E9033CC0E90533C0E90733FDF7E8FF49
:10310000002808BF80BDBDE88040FDF77DBE0000FF
:1031100080B540F2C41045F60001C2F20000C4F2CE
:10312000000148F2A06200234FF4804CC0F201027B
:1031300080E80E00C0E9033CC0E90533C0E907336D
:10314000FDF7C6FF002808BF80BDBDE88040FDF741
:103150005BBE000080B586B040F2182042F6004207
:103160000021C2F20000C4F2010247234FF6FF7CA7
:103170000591CDE90311CDE90011C0E90023C0E9B3
:10318000021CC0E904118161FEF7A2FF002818BFEC
:10319000FDF73AFE4FF48050029040F21820C2F240
:1031A000000002A9FFF772F8002818BFFDF72CFEF7
:1031B00040F21820C2F200006946FEF74BFF0028DB
:1031C00018BFFDF721FE06B080BD000080B540F2BB
:1031D000602043F60001C2F20000C4F201010023A6
:1031E0004FF00C0C4FF4165280E80E00C0E9033388
:1031F000C0E905C3C361FFF713F9002808BF80BD0C
:10320000BDE88040FDF700BEFEE7000080B5062067
:10321000002100F07DFBBDE8804000F09BBB00007A
:10322000FEE700002DE9F04F85B040F2C414002500
:103230004FF480760127C2F200040DF1120B0DF15C
:1032400013084FF0000900BF09F1B0008DF810001D
:1032500004A8CDE900072046782100220123029628
:10326000FEF70EFA0DF11100CDE900072046782196
:10327000002201238DF811500296FEF701FA10206A
:103280008DF812002046782100220123CDE900B7F5
:103290000296FEF7F5F94FF0000A00BF20467821AC
:1032A000402201238DF81350CDE900870296FEF7E6
:1032B000E7F90AF101004FFA80FABAF1FF3FEDDCBD
:1032C000B9F1070F09F10109BED305B0BDE8F08FD0
:1032D00080B5C820FDF79EFDBDE8804000F060BBD2
:1032E0002DE9F04F89B0064640B20D460028A2F104
:1032F000200744BF02350026102BA5F1500040F0F6
:103300003F8140F2C4148DF818004FF0010906A85F
:10331000C2F200044FF48078CDE9000920467821FC
:1033200000220123CDF80880FEF7AAF930091030F9
:1033300005908DF819000DF11900CDE9000920461E
:10334000782100220123CDF80880FEF799F906F0D4
:103350000F0004908DF81A000DF11A00CDE9000954
:103360002046782100220123CDF80880FEF788F955
:10337000F8B245F2EE320101C0F60002515C02EBF8
:1033800000168DF81B100DF11B07204678214022F6
:103390000123CDE90079CDF80880FEF771F9707846
:1033A000317996F802A096F803B003918DF81B00CE
:1033B0002046782140220123CDE90079CDF808800C
:1033C000FEF75EF920467821402201238DF81BA0EC
:1033D000CDE90079CDF80880FEF752F92046782132
:1033E000402201238DF81BB0CDE90079CDF808808B
:1033F000FEF746F9039878218DF81B0020464022FD
:103400000123CDE90079CDF80880FEF739F970790C
:1034100078218DF81B00204640220123CDE9007958
:10342000CDF80880FEF72CF9B07978218DF81B00D3
:10343000204640220123CDE90079CDF80880FEF72F
:103440001FF9F07978218DF81B00204640220123D6
:10345000CDE90079CDF80880FEF712F9A5F14F000B
:103460008DF81C0007A8CDE900092046782100222C
:103470000123CDF80880FEF703F9059878218DF82F
:103480001D000DF11D00CDE9000920460022012399
:10349000CDF80880FEF7F4F8049878218DF81E0026
:1034A0000DF11E00CDE90009204600220123CDF8D0
:1034B0000880FEF7E5F8307A0DF11F058DF81F0042
:1034C0002046782140220123CDE90059CDF808801B
:1034D000FEF7D6F8707A78218DF81F00204640223A
:1034E0000123CDE90059CDF80880FEF7C9F8B07A7C
:1034F00078218DF81F00204640220123CDE9005994
:10350000CDF80880FEF7BCF8F07A78218DF81F001E
:10351000204640220123CDE90059CDF80880FEF76E
:10352000AFF8307B78218DF81F0020464022012320
:10353000CDE90059CDF80880FEF7A2F8707B78211C
:103540008DF81F00204640220123CDE90059CDF817
:103550000880FEF795F8B07B78218DF81F00204693
:1035600040220123CDE90059CDF80880FEF788F804
:10357000F07BCDE900598DF81F00204689E000BF9F
:1035800040F2C41B8DF820004FF0010A08A8C2F2D7
:10359000000B4FF48078CDE9000A584678210022CC
:1035A0000123CDF80880FEF76BF8300910308DF854
:1035B00021000DF12100CDE9000A584678210022B2
:1035C0000123CDF80880FEF75BF806F00F008DF8B8
:1035D00022000DF12200CDE9000A58467821002290
:1035E0000123CDF80880FEF74BF8F8B245F2C6117A
:1035F00000EB4000C0F6000111F8102001EB40057F
:103600008DF823200DF1230658467821402201230E
:10361000CDE9006ACDF80880FEF732F86878AF7817
:10362000EC7895F804908DF82300584678214022D4
:103630000123CDE9006ACDF80880FEF721F858464D
:103640007821402201238DF82370CDE9006ACDF85E
:103650000880FEF715F858467821402201238DF89E
:103660002340CDE9006ACDF80880FEF709F85846F6
:103670007821402201238DF82390CDE9006ACDF80E
:103680000880FDF7FDFF6879CDE9006A8DF8230019
:103690005846782140220123CDF80880FDF7F0FF3D
:1036A00009B0BDE8F08F00002DE9F04F87B0064665
:1036B000A1F1500040F2C4158DF81400012705A8AF
:1036C000C2F20005144604914FF4807ACDE9000758
:1036D0002846782100220123CDF808A0FDF7D0FF6D
:1036E000300900F110080DF11500CDE9000728465A
:1036F0007821002201238DF81580CDF808A0FDF770
:10370000BFFF0DF1160006F00F0BCDE900072846AC
:103710007821002201238DF816B0CDF808A0FDF71E
:10372000AFFF45F6CE11C4EB0420C0F6000101EB5B
:1037300040064FF0FF340DF1170900BF30194078F3
:1037400078218DF81700284640220123CDE9009703
:10375000CDF808A0FDF794FF01341F2CEED104989A
:1037600040F2C4144F388DF818004FF0010A06A833
:10377000C2F200044FF48079CDE9000A2046782196
:1037800000220123CDF80890FDF77AFF0DF1190012
:10379000CDE9000A20467821002201238DF8198006
:1037A000CDF80890FDF76CFF0DF11A00CDE9000A85
:1037B00020467821002201238DF81AB0CDF8089018
:1037C000FDF75EFFFE250DF11B0700BF7019407865
:1037D00078218DF81B00204640220123CDE9007A94
:1037E000CDF80890FDF74CFF0135B5F58F7FEDD191
:1037F00007B0BDE8F08F00002DE9F04F85B0002B39
:10380000049103907CD00E981C464508981E0090A9
:1038100058421746591E4FF000085FFA80FB42F2EB
:10382000107900264FF0000A0291019212E000BFC9
:103830000126039940F0300205FB08110E9BC8B227
:103840000499D2B2FFF74CFD08F10108A0450AF136
:10385000010A55D06FEA0A00C0B2584502D10120D2
:103860002AE000BF00996FEA0800A1EB0801C9B285
:10387000032900EB040101D2012009E001F0FC0260
:10388000002301200433DFB2974200FB09F0F9D195
:10389000019F11F003010FD0012903D100EB80003B
:1038A000400009E04FF47A72424302294FF064016C
:1038B00008BF00FB01F21046B7FBF0F04CF6CD411B
:1038C000CCF6CC41A0FB0112D10801EB8101002E06
:1038D000A0EB4100ADD102994145AADD0028A7D156
:1038E0000398049905FB08000E9BC0B22022FFF745
:1038F000F7FC002608F10108A0450AF1010AA9D148
:1039000005B0BDE8F08F0000704700007047000070
:10391000B0B50C46FCF7B4FE48F20003C4F216033F
:103920000022FCF711FE0023C4F250030022FCF732
:1039300099FDFCF7CBFE0128B8BFB0BD054600BF1E
:103940002046FFF715FB0120FDF764FA013DF7D192
:10395000B0BD000010B540F60044C4F2010420469A
:103960004FF480510022FDF7A7FB20464FF4005191
:103970000022FDF7A1FB20464FF480410022FDF715
:103980009BFB20464FF400410022BDE81040FDF7AC
:1039900093BB0000FDF7C2BF70470000FEE70000C8
:1039A000F0B583B040F2C41440F20807C2F200043C
:1039B0004FF480750126C2F20007204678210022CC
:1039C0000123CDE900760295FDF75AFE781CCDE97A
:1039D000000620467821002201230295FDF750FEC3
:1039E000B81CCDE90006204678210022012302956B
:1039F000FDF746FEF81CCDE900062046782100229E
:103A000001230295FDF73CFE381DCDE90006204656
:103A10007821002201230295FDF732FE781DCDE9C1
:103A2000000620467821002201230295FDF728FE9A
:103A3000B81DCDE900062046782100220123029519
:103A4000FDF71EFEF81DCDE9000620467821002274
:103A500001230295FDF714FE07F10800CDE90006E9
:103A600020467821002201230295FDF709FE07F187
:103A70000900CDE9000620467821002201230295A5
:103A8000FDF7FEFD07F10A00CDE90006204678218A
:103A9000002201230295FDF7F3FD07F10B00CDE9AC
:103AA000000620467821002201230295FDF7E8FD5B
:103AB00007F10C00CDE90006204678210022012301
:103AC0000295FDF7DDFD07F10D00CDE9000620466A
:103AD0007821002201230295FDF7D2FD07F10E00A7
:103AE000CDE9000620467821002201230295FDF74A
:103AF000C7FD07F10F00CDE900062046782100221E
:103B000001230295FDF7BCFD07F11000CDE9000689
:103B100020467821002201230295FDF7B1FD07F12F
:103B20001100CDE9000620467821002201230295EC
:103B3000FDF7A6FD07F11200CDE900062046782129
:103B4000002201230295FDF79BFD07F11300CDE94B
:103B5000000620467821002201230295FDF790FD02
:103B600007F11400CDE90006204678210022012348
:103B70000295FDF785FD07F11500CDE90006204609
:103B80007821002201230295FDF77AFD07F1160046
:103B9000CDE9000620467821002201230295FDF799
:103BA0006FFD07F11700CDE90006204678210022BD
:103BB00001230295FDF764FD07F11800CDE9000629
:103BC00020467821002201230295FDF759FD07F1D7
:103BD0001900CDE900062046782100220123029534
:103BE000FDF74EFD07F11A00CDE9000620467821C9
:103BF000002201230295FDF743FD03B0F0BD000054
:103C000040F60040C4F2010010210122FDF754BA31
:103C10002DE9F04784B0828C044622F0010076281A
:103C200040F003818846A06A510041F288320123A6
:103C300004F1320ACDE9013289B2D0220123CDF854
:103C400000A0FDF701FB002840F0EF809AF800008B
:103C5000602802D0582840F0E880A18CB622A06AE3
:103C60008DF80E20490042F2107201250DF10E0769
:103C7000029289B2E022012300970195FDF700FD31
:103C8000002840F0D28041F2883600BFA18CA06AA3
:103C9000490089B2F3220123CDE900750296FDF7B0
:103CA000D3FA0028F2D19DF80E00C007EED1A18C06
:103CB000A06A490041F28835022689B28822012390
:103CC000CDE900760295FDF7BFFA002840F0AD80FF
:103CD000BDF80E00A18C2080A06A490089B28A221A
:103CE0000123CDE901650097FDF7AEFA002840F009
:103CF0009C80BDF80E00A18C6080A06A490041F252
:103D00008835022689B28C220123CDE900760295FE
:103D1000FDF79AFA002840F08880BDF80E00A18CCB
:103D2000A080A06A490089B28E220123CDE90165F5
:103D30000097FDF789FA002877D1BDF80E00A18C15
:103D4000E080A06A490041F28835022689B29022BB
:103D50000123CDE900760295FDF776FA002864D1BB
:103D6000BDF80E00A18C2081A06A490089B2922280
:103D70000123CDE901650097FDF766FA002854D1CB
:103D8000BDF80E00A16A6081A08C04F10C0394229E
:103D900000F058FD002848D0A16AA08C04F10E0361
:103DA000962200F04FFD00283FD0A16AA08C04F1BC
:103DB0001003982200F046FDB8B3A16AA08C04F16C
:103DC00012039A2200F03EFD78B3A16AA08C04F1A0
:103DD00014039C2200F036FD38B3A16AA08C04F1D4
:103DE00016039E2200F02EFDF8B19AF8000060281C
:103DF00003D1204600F0A6FCB8B198F8010098F86D
:103E000005108000A28C40EA4111A06A8DF80E10C6
:103E1000510042F210720123CDE9013289B2F5223C
:103E200001230097FDF72CFC20B1002004B0BDE871
:103E3000F08700BF98F80050012D04BF002588F8D6
:103E400000509AF8000098F8029098F803606028F3
:103E500013D198F80410A28CA06A8DF80E105100AE
:103E600042F210720123CDE9013289B2F22201231C
:103E70000097FDF705FC0028D7D14FEA890040EAFA
:103E80004610A28C40EA0501A06A8DF80E10510080
:103E9000012242F21076CDE9007289B2F4220123A8
:103EA0000296FDF7EDFBB0FA80F0400904B0BDE8E2
:103EB000F0870000032101804FF00331C0F80210A9
:103EC000704700002DE9F04F8BB0054690F83200A6
:103ED0009B4660288A46089208D0BBF1000F4FF03D
:103EE000000018BFCBF800004FF0000BA98C08228F
:103EF000A86A4900BBF1000F08BF062209AB41F2D6
:103F00008837CDE9003289B2F72201230297FDF705
:103F10009BF9804630B1B8FA88F040090BB0BDE893
:103F2000F08F00BF9DF828009DF8271000019DF834
:103F3000292040EA013040EA12112A88B5F90460CC
:103F4000C2EB10104043C908B5F90230000BA1EBD9
:103F5000420170435943801300EBE12EB5F90A701A
:103F6000AEF5FA3383FB0319A1FB0726FC1701FB0F
:103F70000466B5F9080009FB0766120A80FB030412
:103F800042EA0662EF8812EB0032A2FB072C9DF892
:103F9000242006929DF8252007924FEA043242EA37
:103FA00010509DF8262040EB262000F50040059299
:103FB0000EEB8E0200FB07C680321012721042EA2E
:103FC000E677002FCAF8000076D0B5F91070B5F981
:103FD0000E00A1FB074ACDE9034E83FB003E002003
:103FE000CFF6F070069C00F57F206043FC1701FBC4
:103FF00004A1079C09FB0711059FA0EB0410A0EB8F
:104000001710039F00F580104408D7EBC07064EBD5
:10401000010A4FEA4E41C446C846B0EB4340B5F9E9
:104020000C7041EAD331E04640F6354C6AEB0101B1
:10403000A0FB0C04A1EBC70101FB0C41B5F91290E8
:10404000F317FCF76FF8420B42EAC142A2FB0237BA
:104050004C13B5F9166002FB047EA3FB06C702FBF6
:1040600004EEF41703FB0473B5F914700EFB06336A
:10407000A0FB0742FE1700FB06224FEA5C6601FB2D
:1040800007224FEA636E46EAC313E70C47EA42375A
:10409000C01841EB0E01C01941EBD241000ADDF816
:1040A00010E040EA016000EB09100899BBF1000F35
:1040B000086008D12FE700BF00200899BBF1000F6E
:1040C00008603FF428AF9DF82B009DF82A1080036C
:1040D00040EA8150E98B0023CFF6F073B5F9202038
:1040E00001FB0300AEF5963101FB120095F9222089
:1040F0002B7F4A4359434FF40043921203EBE121D3
:1041000051434FF40012B5F91A3002EBA121594383
:1041100000F5804001F50051C01389134843C113D5
:1041200049432A7EC9095143A0EB111020EAE070EF
:10413000B0F1C85F28BF4FF0C850000BCBF80000AB
:10414000B8FA88F040090BB0BDE8F08FF0B583B045
:104150001C4616460F466B4602A901AA002C08BF52
:104160002346FFF7AFFE0546D0B10298FCF769FA87
:104170000021C4F2C821FCF790F801993860084684
:10418000FCF768FA4FF06E51FCF755F830603CB11F
:104190000098FCF75FFA4FF06A51FCF74CF820608A
:1041A000284603B0F0BD0000A0B0FDF7C5FB002419
:1041B0000120CDE91B44CDE9194416901A904FF423
:1041C000E0104FF4803102251F9016A8CDE9171496
:1041D000CDE91D51FDF74EFD20B1EFF3108072B611
:1041E000FEE700BF0F20CDE911054FF48060CDE957
:1041F000140411A802211394FDF734FC20B1EFF34D
:10420000108072B6FEE700BFFEF712FFFEF75EFFFA
:10421000FEF7A0FFFEF7DAFFFEF77AFFFFF758F888
:10422000FFF700F8102000210022FFF73DFA2020C0
:1042300000210122FFF738FA302000210222FFF787
:1042400033FA402000210322FFF72EFA50200021EC
:104250000422FFF729FA602000210522FFF724FA43
:10426000102002210622FFF71FFA20200221072238
:10427000FFF71AFA302002210822FFF715FA402032
:1042800002210922FFF710FA502002210A22FFF72B
:104290000BFA602002210B22FFF706FA002004210E
:1042A0000C22FFF701FA102004210D22FFF7FCF980
:1042B000202004210E22FFF7F7F9302004210F22DD
:1042C000FFF7F2F9402004213A221023FFF708F803
:1042D000002006211022FFF7E7F910200621112205
:1042E000FFF7E2F92020062143221023FEF7F8FF12
:1042F0002820062173221023FEF7F2FF302006212A
:104300003A221023FEF7ECFF40F22807C2F2000722
:1043100007F13C063046FFF7CDFD7621B98640F225
:104320007011C2F2000107F11000B9633146069026
:10433000FFF76EFC40F27008C2F20008A8BBDCA0D8
:10434000416800F1100A109181689AE820060F91E7
:10435000C168B0F81CB00E91D54808F10C01C8F83E
:10436000000010983C46C8F804000F981D22C8F8B9
:1043700008000E984FF47A7381E821061D2027F873
:10438000100B40F26020C2F200004146A8F81CB0B9
:10439000FEF7F2F84FF4FA60FCF73CFD3846314680
:1043A0002746FFF735FC0028D6D097F84210C8A062
:1043B000C9A20591602908BF0246C9A1404600F084
:1043C00073FA388082B240F26020C2F200004146A7
:1043D0004FF47A73FEF7D0F8C6A0416840F20009A6
:1043E0001091D0E90241C4F220190E9101690F9495
:1043F0000D9141690C9181690491C1690391016A30
:10440000808C0291DDF808B0099000BF4546FCF7AA
:1044100049FB0446FCF741F90646FCF712F9014650
:104420002046FBF702FF4946FBF705FFFCF735F98D
:104430000746F2B248200421022310260096FFF717
:10444000DBF9582004212E221023FEF749FF6020BB
:1044500004213A4601230096FFF7CEF96820042193
:1044600043221023FEF73CFF00212046C4F2A01196
:10447000FCF7D9F818B900F005FAFFF7C1FB2046A0
:10448000FCF743F940F22808C2F20008CDE9071012
:1044900008F1040908F1080A08F10C0706984946D2
:1044A00052463B46FFF752FE00281099DDE90E32D6
:1044B000DDE90C64DDE903EC8E482DD1CDE90A9AE3
:1044C00085E85F500998BA46A8844746252027F812
:1044D000100B40F26020C2F20000294625224FF462
:1044E0007A73C5F820B066467446FEF745F84FF477
:1044F000FA60FCF78FFC0A990B9A384653465746E8
:10450000FFF724FEA646B446DDE90C64DDE90E3271
:10451000109900287748D3D0D8E90140FCF7F5F886
:10452000074620460E46FCF7F0F80C460090284659
:104530007AA13A46334640F22806C2F200060194B8
:1045400000F0B2F940F26024C2F20004308082B27E
:10455000204629464FF47A73FEF70EF80598A846D0
:1045600060280DD1F068FCF7D0F80B4647F6BA5139
:1045700002464046C0F6000100F096F904E000BF94
:104580000A20A8F80000012040F20009DDE90757E1
:10459000308082B2204641464FF47A73C4F220192B
:1045A000FDF7EAFFB0684EF28061C4F2C571FBF717
:1045B00074FEFCF7AAF847F6E12242F247130446DC
:1045C0000E4638462946CAF61462C4F24003FBF789
:1045D000A2FE02460B464CF6CD404DF6CC41CCF641
:1045E000CC40C4F27D01FBF7AFFF22463346FBF718
:1045F00039FFFCF79DF88246FCF74FF80746FCF7B9
:1046000020F801465046FBF710FE4946FBF713FE23
:104610000446FCF742F80646FCF713F8014620462C
:10462000FBF703FE4946FBF706FEFCF736F80446A7
:10463000FAB238200621022310270097FFF7DCF892
:10464000482006212E221023FEF74AFE5020062184
:10465000324601230097FFF7CFF858200621224663
:1046600001230097FFF7C8F8602006216D22102370
:10467000FEF736FE6820062167221023FEF730FE83
:10468000702006212F221023FEF72AFE7820062113
:104690004C221023FEF724FE00215046C4F2A00154
:1046A000FBF7C1FF00287FF4B1AEFEF7AFFDADE62A
:1046B000424D5032383020696E697469616C697A94
:1046C0006174696F6E206661696C65640A00000040
:1046D000424D453238300000424D503238300000F3
:1046E000424D503238303A20666F756E6420257323
:1046F0000A00000054656D70657261747572652FF3
:1047000070726573737572652072656164696E6736
:10471000206661696C6564210A000000507265734F
:10472000737572653A20252E32662050612C205414
:10473000656D70657261747572653A20252E3266FA
:10474000204300002DE9F04786B0828C044600F13A
:104750001801806A5200012341F28835CDE9001327
:1047600091B2A12201230295FCF76EFD002857D1DA
:10477000A18CA06A490002220DF11203CDE900329A
:1047800089B2E122012302950125FCF75DFD002895
:1047900046D1BDF81200A28C608304F11C01A06A0E
:1047A000520041F28836CDE9001591B2E32201238F
:1047B0000296FCF749FD98BBA18CA06A490005AAA6
:1047C0000225009289B2E422012302960195FCF7AA
:1047D0003BFD28BBA18CA06A49000DF116029DF893
:1047E00014809DF8156041F288378DE8A40089B2E5
:1047F000E52201230125FCF727FD88B9A28C04F1ED
:104800002201A06A52009DF816909DF817A0CDE9EC
:10481000001591B2E72201230297FCF715FD18B1AC
:10482000002006B0BDE8F08749EA0A2006F00F0133
:1048300041EA08110009E1832084012006B0BDE8A7
:10484000F087000070B584B01E460B464000022180
:104850000DF10E0541F28834CDE9005181B21846C0
:1048600001230294FCF7F0FC20B1B0FA80F040097B
:1048700004B070BDBDF80E103180B0FA80F0400970
:1048800004B070BD10B540F60044C4F201042046E7
:104890004FF400710122FCF70FFC20460821012291
:1048A000BDE81040FCF708BC0FB4084B10B504A9D4
:1048B00002AA039800F0DEF8044602A9002000F0E6
:1048C00070FC204610BC5DF814FB0000A3510008EA
:1048D00002E008C8121F08C1002AFAD170477047C9
:1048E000002001E001C1121F002AFBD17047000027
:1048F0002DE9FF5F82B00021DDE90430020DDDF813
:1049000040B0034318D044F61050A2F2FF324243A5
:104910001514119801281FD0A5EB0B00401C5FEA6D
:10492000000A4FF000064E4FDFF83891B04650466F
:1049300015D5CAF1000413E0119801244AA30128F7
:1049400001D16FEA0B010298119AC0E90031C0E968
:10495000024206B0BDE8F09FCBF10000DFE704465D
:104960000021404A491842EB0450CDE9001012E002
:10497000E00707D032463B4640464946FBF772FD0A
:104980008046894632463B4610461946FBF76AFD8B
:1049900006460F466410002CEAD1DDE90401DDE98A
:1049A0000023BAF1000F06DAFBF75CFD42464B46E6
:1049B000FBF758FD05E0FBF7C7FD42464B46FBF70A
:1049C000C3FD04460E460022284BFBF7F1FF03D837
:1049D0004FF0FF30014607E00022254B20463146CC
:1049E000FBF799FCFBF7CCFF102409E0002C0ADB55
:1049F0000A220023FBF7CEFE039B30321A55641EB9
:104A000050EA0102F2D1641C039AC4F11103144468
:104A1000119A012A03D0012208430DD10AE008436C
:104A200004D000204FF0110B119072E7A3EB0B059F
:104A30006D1E0DE05B4504DD4FF0000205F1010540
:104A400004E003DA4FF00002A5F10105002AECD0E2
:104A500002981199C0E90231C0E9004579E70000E8
:104A6000000014400000F03F300000000000F04360
:104A70000000E03F2DE9FF4F95B09B468946064672
:104A800000250FE2252877D100242746F84A012186
:104A9000059400E0044316F8013F203B01FA03F0BF
:104AA0001042F7D130782A2811D06FF02F033078D8
:104AB000A0F13002092A16D8059A44F0020402EB4C
:104AC000820203EB42021044761C0590EFE759F88E
:104AD000042B0592002A03DA504244F40054059056
:104AE00044F00204761C30782E2816D116F8010FF7
:104AF00044F004042A280DD06FF02F023078A0F182
:104B00003003092B09D807EB870302EB4303C718CF
:104B1000761CF3E759F8047B761C30786C280FD0AC
:104B200006DC4C2817D068280DD06A2814D104E080
:104B3000742810D07A280FD10DE044F400140AE054
:104B400044F4801401E044F440147278824202D1AB
:104B500004F58014761C761C307866280BD013DCA4
:104B6000582877D009DC002875D04528F6D046288B
:104B7000F4D047281AD19DE118E0632835D0642885
:104B800079D0652812D195E1702873D008DC6728A8
:104B9000F1D069286FD06E280DD06F2806D1B5E00E
:104BA00073282CD0752875D0782874D05A46179958
:104BB00090476D1C75E1C4F30250022809D0032808
:104BC0000DD0D9F8001004280DD00D6009F10409AA
:104BD00067E1D9F80010EA17C1E90052F6E7D9F801
:104BE00000100D80F2E70D70F0E719F8041B8DF846
:104BF000001000208DF80100EA46012003E059F87A
:104C000004AB4FF0FF3061074FF0000102D40DE01C
:104C100008F101018846B9420FDA8045F8DB1AF83D
:104C200008100029F4D108E008F10101884681420A
:104C3000FADB1AF808100029F6D105985B46A0EBBC
:104C4000080721463846179A00F094FA284400EBEA
:104C5000080507E04DE029E10DE01AF8010B5A467E
:104C600017999047B8F10108F7D25B4621463846BC
:104C7000179A13E142E00A220092C4F302524FF065
:104C8000000A022A08D059F804CB032A4FEAEC7133
:104C90000AD00DE029E02AE009F1070121F007021E
:104CA000F2E802C1914609E00FFA8CFC4FEAEC7180
:104CB000042A03D14FFA8CFC4FEAEC71002907DA81
:104CC0000A460021DCF1000C61EB02012D2202E01A
:104CD000220504D52B228DF80420012203E0E207EF
:104CE00001D02022F7E7904659E00A2102E0102285
:104CF0000DE010214FF0000A00910BE010224FF060
:104D0000000A44F004040827009203E008224FF050
:104D1000000A0092C4F30252022A05D059F804CBCB
:104D20000021032A08D009E009F1070121F0070258
:104D3000F2E802C1914605E01FFA8CFC042A01D179
:104D40000CF0FF0C4FF00008220728D5702806D081
:104D5000009B83F0100353EA0A0305D00EE04022C3
:104D60008DF80420012208E05CEA010206D030221E
:104D70008DF804208DF8050002229046009B83F0F8
:104D8000080353EA0A030AD15CEA010201D162076F
:104D900005D530228DF804204FF001087F1E5828D9
:104DA00004D034A003900EA802900DE036A0F9E7DD
:104DB00053466046009AFBF7EDFC84460398825CFC
:104DC0000298401E029002705CEA0100F0D1029845
:104DD00006A9081A00F1200A600702D524F48034DD
:104DE00000E00127574502DDA7EB0A0000E00020A4
:104DF00000EB0A01009005984144401A0590E00339
:104E000006D45B462146179A059800F0B3F905448D
:104E1000002706E001A85A46C05D179990476D1C0F
:104E20007F1C4745F6DBE0030CD55B462146179A0D
:104E3000059800F09FF9054404E030205A46179980
:104E400090476D1C0099481E00900029F5DC08E091
:104E5000029802995A460078491C02911799904786
:104E60006D1CBAF10001AAF1010AF1DC65E1000054
:104E70000928010030313233343536373839616230
:104E800063646566000000003031323334353637F4
:104E900038394142434445460000000000F058F9CB
:104EA0000544761C307800287FF4ECAD19B0284614
:104EB000BDE8F08F620700D4062709F1070222F04F
:104EC000070CFCE80223E14603F000485FEA080C07
:104ED00002D00FF2702C0DE05FEA045C02D50FF2F5
:104EE000682C07E05FEAC47C02D00FF2602C01E07E
:104EF000AFF2700C4FF0FF3823F00043CDF850C0F4
:104F000065280CD006DC452809D046281DD0472846
:104F10003DD13DE0662818D067287ED138E00021D9
:104F2000112F01DB112000E0781CCDE9000106A95A
:104F30000EA8FFF7DDFCDDE90F010E9A03910021B9
:104F4000009207F1010A04914DE04FF000400097F4
:104F5000CDE9011006A90EA8FFF7CAFCDDE90F0292
:104F600003920E9B11990022DDF80CA0009304928D
:104F700011B9791C00EB010AB7EB0A0004D4C0F1A7
:104F8000FF3007F1010A0490AAEB0700019044E00A
:104F9000012F00DA01270021112F01DD112000E08F
:104FA0003846CDE9000106A90EA8FFF7A1FCDDE90E
:104FB0000F010E9A0391002104910092BA46210735
:104FC0000CD40399514500DA8A46BAF1010F05DD88
:104FD000009AAAF10101515C302908D0B84202DAE6
:104FE00010F1040F06DA0121CDE9011015E0AAF154
:104FF0000101E9E7002805DC049901440491AAEBCA
:10500000000102E0411C514500DD8A460499401A26
:10501000401C01904FF000400290200704D40198FA
:10502000504501DBCDF8048000208DF84F00029838
:105030000DF14F07B0F1004F25D02B200E900298B4
:105040004FF0020800280CDA404202902D200E900A
:1050500007E00A210298FBF787FB3031029007F83E
:10506000011DB8F10001A8F10108F2DC0298002846
:10507000EFD1791E0E980870307800F0200040F0D3
:10508000450007F8020D12A8C01B00F1070814988C
:10509000007800B1012000EB0A01019801EBE071FA
:1050A00005984144401A401E0590E00306D45B4633
:1050B0002146179A059800F05DF805441498007889
:1050C00018B15A46179990476D1CE00324D55B46EA
:1050D0002146179A059800F04DF805441CE0049805
:1050E000002807DBDDE90301884203DD0098405C0E
:1050F000179901E0179930205A469047049805F116
:105100000105401C04900198401E019004D12E20FE
:105110005A46179990476D1CBAF10001AAF1010A8D
:10512000DDDC05E017F8010B5A46179990476D1C16
:10513000B8F10001A8F10108F4DC5B462146179A9A
:105140000598ABE62D0000002B00000020000000B9
:105150002DE9F041044600251E461746880404D474
:1051600005E039462020B0476D1C641EF9D528465D
:10517000BDE8F0812DE9F041044600251E46904629
:10518000C80301D5302700E02027880404D505E0B6
:1051900041463846B0476D1C641EF9D52846BDE827
:1051A000F0810A68531C0B60107070470102000008
:1051B00000000000000001020304060708090000C7
:1051C0000000010203040000000000000000002FA6
:1051D000000000000700070000147F147F14002463
:1051E0002A7F2A1200626408132300364955225090
:1051F00000000503000000001C22410000004122C5
:105200001C000014083E08140008083E08080000AE
:1052100000A06000000808080808000060600000A6
:10522000002010080402003E5149453E0000427F24
:105230004000004261514946002141454B31001870
:1052400014127F10002745454539003C4A49493032
:1052500000017109050300364949493600064949EC
:10526000291E0000363600000000563600000008F7
:1052700014224100001414141414000041221408D4
:1052800000020151090600324959513E007C1211B9
:10529000127C007F49494936003E41414122007F4E
:1052A0004141221C007F49494941007F0909090108
:1052B000003E4149497A007F0808087F0000417F8D
:1052C0004100002040413F01007F08142241007F3F
:1052D00040404040007F020C027F007F0408107FA6
:1052E000003E4141413E007F09090906003E41510F
:1052F000215E007F091929460046494949310001CC
:10530000017F0101003F4040403F001F2040201F1F
:10531000003F4038403F00631408146300070870E2
:10532000080700615149454300007F414100005595
:105330002A552A55000041417F0000040201020461
:10534000004040404040000001020400002054544E
:105350005478007F4844443800384444442000389E
:105360004444487F00385454541800087E09010210
:105370000018A4A4A47C007F080404780000447DE5
:105380004000004080847D00007F10284400000021
:10539000417F4000007C04180478007C08040478F5
:1053A00000384444443800FC2424241800182424E1
:1053B00018FC007C080404080048545454200004DD
:1053C0003F444020003C4040207C001C2040201CEA
:1053D000003C4030403C004428102844001CA0A061
:1053E000A07C004464544C4414141414141400009D
:1053F00000000000000000000000000000000000AD
:1054000000F8000000000000003330000000001031
:105410000C06100C0600000000000000000040C058
:105420007840C0784000043F04043F04040000704A
:1054300088FC08300000001820FF211E0000F00842
:10544000F000E018000000211C031E211E0000F0E7
:105450000888700000001E2123241927211010162F
:105460000E0000000000000000000000000000002E
:1054700000E01804020000000007182040000002AD
:105480000418E00000000040201807000000404021
:1054900080F0804040000202010F01020200000083
:1054A00000F0000000000101011F010101000000E7
:1054B00000000000000080B070000000000000004C
:1054C00000000000000000010101010101010000D5
:1054D000000000000000003030000000000000006C
:1054E000000080601804006018060100000000E061
:1054F00010080810E000000F102020100F0000100E
:1055000010F8000000000020203F20200000007064
:10551000080808887000003028242221300000305C
:105520000888884830000018202020110E00000054
:10553000C02010F8000000070424243F240000F8D5
:105540000888880808000019212020110E0000E0BA
:10555000108888180000000F112020110E0000385C
:105560000808C83808000000003F00000000007074
:10557000880808887000001C222121221C0000E0FD
:1055800010080810E0000000312222110F00000076
:1055900000C0C0000000000000303000000000002B
:1055A000008000000000000080600000000000009B
:1055B0008040201008000001020408102000404034
:1055C0004040404040000404040404040400000877
:1055D000102040800000002010080402010000702C
:1055E00048080808F0000000003036010000C03014
:1055F000C828E810E0000718272423140B00000037
:10560000C038E0000000203C23020227382008F8C0
:10561000888888700000203F202020110E00C030B4
:10562000080808083800071820202010080008F88B
:1056300008080810E000203F202020100F0008F884
:105640008888E8081000203F20202320180008F850
:105650008888E8081000203F200003000000C030C8
:1056600008080838000007182020221E020008F849
:1056700008000008F808203F210101213F20000810
:1056800008F8080800000020203F2020000000004B
:105690000808F8080800C08080807F00000008F833
:1056A00088C028180800203F20012638200008F86C
:1056B000080000000000203F20202020300008F8D3
:1056C000F800F8F80800203F003F003F200008F8ED
:1056D00030C00008F808203F200007183F00E01005
:1056E00008080810E0000F10202020100F0008F814
:1056F00008080808F000203F210101010000E01027
:1057000008080810E0000F18242438504F0008F84B
:10571000888888887000203F2000030C30200070AB
:105720008808080838000038202121221C001808A9
:1057300008F8080818000000203F2000000008F8C2
:1057400008000008F808001F202020201F0008780B
:10575000880000C83808000007380E010000F8086B
:1057600000F80008F800033C0700073C0300081895
:1057700068808068180820302C03032C30200838FB
:10578000C800C83808000000203F200000001008B2
:105790000808C838080020382621202018000000FA
:1057A00000FE020202000000007F40404000000CAA
:1057B00030C000000000000000010638C0000002F8
:1057C0000202FE000000004040407F000000000098
:1057D00004020202040000000000000000000000BB
:1057E00000000000000080808080808080800002B7
:1057F00002040000000000000000000000000000A3
:105800008080808000000019242222223F2008F896
:10581000008080000000003F112020110E000000D9
:10582000008080800000000E112020201100000068
:1058300000808088F800000E112020103F2000001A
:10584000808080800000001F22222222130000801E
:1058500080F0888888180020203F20200000000069
:10586000808080808000006B94949493600008F89E
:10587000008080800000203F210000203F20008029
:105880009898000000000020203F20200000000029
:1058900000809898000000C08080807F000008F899
:1058A000000080808000203F24022D30200000086E
:1058B00008F8000000000020203F20200000808029
:1058C000808080808000203F20003F20003F80803B
:1058D000008080800000203F210000203F20000049
:1058E000808080800000001F202020201F008080FA
:1058F00000808000000080FFA12020110E00000029
:10590000008080808000000E112020A0FF80808019
:1059100080008080800020203F21200001000000C6
:10592000808080808000003324242424190000809B
:1059300080E0808000000000001F202000008080A8
:10594000000000808000001F202020103F20808069
:1059500080000080808000010E30080601008080F9
:105960000080008080800F300C030C300F0000801E
:105970008000808080000020312E0E312000808049
:1059800080000080808080818E7018060100008079
:105990008080808080000021302C22213000000097
:1059A0000000807C020200000000003F4040000236
:1059B000027C800000000040403F0000000000002A
:1059C0000000FF00000000000000FF0000000020B9
:1059D0002020A06000FF6080402018000000000030
:1059E00000000000000000000000000000000000B7
:1059F00000000000000000000000000000000000A7
:105A00000000000000000000000000000000000096
:105A10000000000000000000000000000000000086
:105A20000000000000000000000000000000000076
:105A30000000000000000000000000000000000066
:105A40000000000000000000000000000000000056
:105A50000000000000000000000000000000000046
:105A60000000000000000000000000000000000036
:105A70000000000000000000000000000000000026
:105A80000000000000000000000000000000000016
:105A90000000000000000000000000000000000006
:105AA00000000000000000000000000000000000F6
:105AB00000000000000000000000000000000000E6
:105AC000000000000000000000000000002010089E
:105AD000060140807F000102040810100000000051
