:020000040800F2
:10000000C005002001010008D12D0008A12800082A
:10001000CD2D0008F90D0008AD35000800000000E6
:10002000000000000000000000000000A1350008F2
:10003000F911000800000000B9340008A5350008D7
:100040001B0100081B0100081B0100081B01000820
:100050001B0100081B0100081B0100081B01000810
:100060001B0100081B0100081B0100081B01000800
:100070001B0100081B0100081B0100081B010008F0
:100080001B0100081B0100081B0100081B010008E0
:100090001B0100081B0100081B0100081B010008D0
:1000A0001B0100081B0100081B0100081B010008C0
:1000B0001B0100081B0100081B0100081B010008B0
:1000C0001B0100081B0100081B0100081B010008A0
:1000D0001B0100081B0100081B0100081B01000890
:1000E0001B0100081B0100081B010008DFF80CD0F1
:1000F00000F006FC0048004721380008C005002039
:100100000648804706480047FEE7FEE7FEE7FEE7B1
:10011000FEE7FEE7FEE7FEE7FEE7FEE7A93500089B
:10012000ED0000082DE9F0410024061B254671F181
:10013000000605DA01240027D0EB070067EB010178
:10014000161E73F1000605DA0027D2EB070201251F
:1001500067EB030300F0EDFA86460E4617469C4611
:10016000AC4204D00025D0EB050E65EB010624B1AE
:100170000020D2EB000760EB030C704631463A4694
:100180006346BDE8F081F0B480EA0102D40F42007A
:10019000B2EB410F02D20246084611464A0042D055
:1001A000C30DDDB2C1F3C752AD1A202D35DAC1F34C
:1001B000160141F4000204B15242C5F1200602FAD0
:1001C00006F12A411044B3EBD05F23D0C4B1012D16
:1001D000A0EBC35009DCF0BC4FF0004202EAC3526E
:1001E000DBB200F5000000F0FFBA400000F18070C3
:1001F00000EBC350A0F1807040EAD170490009E0E3
:10020000490841EAC071A0EBC35000F50000400866
:1002100000EBC350F0BC00F0DEBA6142012202EBF9
:100220004101001BF6E7F0BC704781F00041AAE7EE
:1002300080F00040A7E780EA010210B502F0004319
:10024000400022D04A001FD0010E01EB1261C0F322
:100250005600C2F3560240F4000042F40002A0FB34
:10026000022000047F39140400D0401C50EA1240E0
:1002700001D44000491EC2B20C0604EBD010401C51
:100280004008802A02D003E0002010BD20F00100C9
:10029000002900DA0020184310BD30B480EA0102C2
:1002A00002F0004530F0004221F0004013D090B140
:1002B000C30DD40DC2F31601C0F31600E41A41F4C5
:1002C000000140F400027D34914201D3641C00E03F
:1002D0004900002C02DA30BC002070474FF40000C7
:1002E0000023914201D3891A034340084FEA410198
:1002F000F7D151B1914202D14FF0004105E002D255
:100300004FF0010101E06FF0010103EBC4502844FC
:1003100030BC00F060BA2DE9FE4F804681EA030050
:10032000C00F0C46009021F0004123F00045B8EBCF
:100330000200A94105D24046214690461C460B4684
:10034000024623F00040104347D0270DC7F30A00B0
:10035000C3F30A510290401A019040286BDAC3F3AC
:10036000130040F4801B0098924620B10023D2EB8A
:10037000030A63EB0B0B01985946C0F1400250464B
:1003800000F008FA06460D4650465946019A00F01C
:1003900010FA10EB08006141002487EA115284EA48
:1003A000E7731A4340D0009A62B3019A012A4FEAD8
:1003B000075215DC001B61EB02014FF0004202EA1C
:1003C0000752CDE90042001C41F5801132462B4610
:1003D00000F047FA03B0BDE8F08F40462146F9E748
:1003E000001B61EB0201001C41F5801300185B410A
:1003F0002018A2F5001747EB030140EAD570B619A3
:100400006D4111E06D084FEA360645EAC0754FEAC6
:100410000752001B61EB0201001C41F580114908E5
:100420004FEA30000019514132462B4603B0BDE877
:10043000F04F00F007BA0098012240000023D0EBF3
:10044000020263EBE073009821464FEAE074B8EBD8
:10045000000061EB0401E9E783F000435BE781F012
:10046000004158E72DE9FE4F81EA030404F00044FF
:1004700021F0004100944FF0000B23F0004350EABC
:1004800001045ED052EA03045BD0C3F30A54C1F303
:100490000A552C44A4F2F3340194A0FB0254C1F396
:1004A000130141F48011C3F3130343F4801301FBE0
:1004B000024400FB034E840A970A44EA815447EA47
:1004C0008357A4FB076802958D0A05FB07854FEA51
:1004D000932C04FB0C542705029D4FEA065847EA6B
:1004E0001637B5EB08056EEB070C870E920E47EA40
:1004F000811742EA8312A7FB0201B6EB0B0164EB02
:1005000000042B0D43EA0C335E1844EB1C50DA4612
:100510005146E7FB0201C5F313044FEA0B3343EAEC
:1005200014534FEA0432019C43EA0603A4F10C047D
:100530000294009CCDE900B400F093F903B0BDE84B
:10054000F08F00200146F9E72DE9F04D81EA030420
:1005500004F0004B21F0004514464FF0000A23F050
:10056000004150EA050220D054EA01021DD0C5F333
:100570000A570246C5F31303C1F31300C1F30A5629
:1005800040F4801543F48013A7EB0608101BD646F1
:1005900008F2FD3873EB050002D308F1010801E011
:1005A00092185B41B8F1000F03DA00200146BDE864
:1005B000F08D00204FF48011064684460EE0171B94
:1005C00073EB050705D3121B63EB050306434CEAE7
:1005D000010C49084FEA300092185B4150EA0107CC
:1005E000EDD152EA030012D082EA040083EA050149
:1005F000084305D0101BAB4106D20122002306E0C0
:1006000000224FF0004302E06FF0010253101AEB9A
:1006100006004CEB085110EB0A0041EB0B01BDE862
:10062000F04D00F00FB9002801DBC0F100400029B7
:1006300001DBC1F10041814201D30120704700205C
:100640007047C10F80EAE0700844CA079623002172
:1006500000F0CAB8F0B4CA17CB0F50405140C618CA
:1006600041F100054FEAC372314628004FF096036E
:1006700003D0B623F0BC00F0B7B830460021F9E74C
:100680000EB5C10F80EAE0700844CA07002140F2AD
:1006900033438DE80E000A460B4600F0E2F803B043
:1006A00000BD00F0004220F00040C10DC0F3160074
:1006B00040F400007F2901DA00207047962903DC0E
:1006C000C1F19601C84001E096398840002AF4D073
:1006D0004042704700F0004230F000400AD0C10DA7
:1006E00001F56071C0F3160042EA0151C2084007EB
:1006F0001143704700200146704701F0004330B4B9
:1007000021F0004150EA010206D00A0DA2F5607204
:10071000C1F31301002A02DC30BC00207047440FF3
:1007200044EAC104C100E01830BC00EBC25000F044
:1007300052B82DE9F05F0546002092469B46884658
:100740000646814640241BE028464146474622464D
:1007500000F0E8F853465A46C01A914110D31146AA
:100760001846224600F016F82D1A67EB01084F468E
:1007700022460120002100F00DF817EB00094E4140
:10078000201EA4F10104DFDC484631462A464346D8
:10079000BDE8F09F202A04DB203A00FA02F1002095
:1007A00070479140C2F1200320FA03F319439040AF
:1007B0007047202A06DBCB17203A41FA02F043EAC1
:1007C000E07306E041FA02F3D040C2F1200291400A
:1007D0000843194670470029A8BF7047401C4900CC
:1007E00008BF20F00100704710B4B0FA80FC00FA96
:1007F0000CF050EA010404BF10BC704749B1CCF1C1
:10080000200421FA04F411FA0CF118BF012121434C
:100810000843A3EB0C01CB1D4FEA00614FEA102007
:1008200042BF002010BC704700EBC35010440029A9
:10083000A4BF10BC7047401C490008BF20F0010055
:1008400010BC704710B5141E73F1000408DA401C88
:1008500041F1000192185B411A4301D120F00100DF
:1008600010BD2DE9F04D92469B4611B1B1FA81F2CF
:1008700002E0B0FA80F220329046FFF78BFF044688
:100880000F4640EA0A0041EA0B0153465A46084324
:1008900013D0114653EA010019D0C8F14002504666
:1008A00000F040F805460E46504659464246FFF7CE
:1008B00071FF084305D0012004E020463946BDE819
:1008C000F08D0020054346EAE0762C4337430A9832
:1008D0006305E40AA0EB08000022FD0A44EA47543D
:1008E0000A3002D500200146E9E7010510196941E7
:1008F000DDE9084500196941BDE8F04DA2E70000B7
:10090000064C074D06E0E06840F0010394E807005C
:1009100098471034AC42F6D3FFF7ECFB1869000897
:1009200038690008202A04DB203A21FA02F000216D
:10093000704721FA02F3D040C2F1200291400843EF
:10094000194670472DE9F04F83B040F2280540F674
:100950000006C2F20005F720C4F2010605F83C0FBC
:100960003046102100224FF0100A4FF0000900F02D
:100970009DFD40F2D804A5F12007C2F200042046F4
:1009800029463A460323CDF800A001F08FFB3046FC
:100990001021012200F08AFD15F81E0C15F81FBC6D
:1009A0000290F920287030461021002200F07EFDD0
:1009B000204629463A460223CDF800A001F076FBF6
:1009C00030461021012200F071FD55F8241C35F944
:1009D000326CB1F5FA304FEAE171A0FB00E261F14F
:1009E000000A00FB0A22AEFB0647F31700FB0A28A9
:1009F00035F9342C0EFB0373A0FB027108FB0633A0
:100A0000D61700FB0611240A0AFB021144EA03640C
:100A1000090314EB073235F8364C41EA175141EB24
:100A20002321A2FB042501F5004101FB04567210AD
:100A300042EAE671002900F0828040F22803C2F207
:100A40000003B3F90E10B3F91030DC46AEFB0345DA
:100A50004FEAE37B0EFB0B550194A0FB0179CC1709
:100A600000FB049008FB035340F2280E029DC2F2E3
:100A7000000E0AFB01009EF81D102D0245EA0C45F0
:100A8000019C29444FF480154004A5EB1111BEF9D7
:100A90000C5040EAD73014EB47474341D7EBC170C5
:100AA00040F6354703EBC5034FEA5101A0FB0704AD
:100AB000994101FB0741BEF91280F317F146FFF798
:100AC00031FB420B42EAC142A2FB02374D13B9F996
:100AD000166002FB0577A3FB06C402FB0572F7173D
:100AE00003FB07434FEA5C6402FB0632B9F914309A
:100AF0004FEA626EA0FB0376DD1700FB056644EA51
:100B0000C21201FB0363FF0C47EA4337801841EB35
:100B10000E01C01941EBE341000A0A1240EA0160EC
:100B20004FEAE871090141EA187110EB08105141D0
:100B3000FFF790FD4FF06E51FFF77DFB8146484671
:100B400003B0BDE8F08F00002DE9F04381B040F222
:100B50002807C2F2000740F60004D0203D46C4F248
:100B6000010405F83C0F2046102100224FF0100828
:100B700000F09CFC40F2D80907F11C06C2F2000903
:100B80004846294632460223CDF8008001F08EFA0D
:100B900020461021012200F089FC642000F034FB83
:100BA0008820287020461021002200F07FFC484653
:100BB000294632460323CDF8008001F077FA20461B
:100BC0001021012200F072FCB7F81D0010213880BE
:100BD0008A2028702046002200F068FC48462946FA
:100BE00032460323CDF8008001F060FA2046102140
:100BF000012200F05BFCB7F81D00102178808C20EA
:100C000028702046002200F051FC48462946324612
:100C10000323CDF8008001F049FA2046102101227B
:100C200000F044FCB7F81D001021B8808E20287019
:100C30002046002200F03AFC48462946324603236B
:100C4000CDF8008001F032FA20461021012200F098
:100C50002DFCB7F81D001021F88090202870204648
:100C6000002200F023FC4846294632460323CDF8F3
:100C7000008001F01BFA20461021012200F016FC32
:100C8000B7F81D00102138819220287020460022DC
:100C900000F00CFC4846294632460323CDF800807C
:100CA00001F004FA20461021012200F0FFFBB7F802
:100CB0001D0010217881942028702046002200F029
:100CC000F5FB4846294632460323CDF8008001F063
:100CD000EDF920461021012200F0E8FBB7F81D00D5
:100CE0001021B881962028702046002200F0DEFBFB
:100CF0004846294632460323CDF8008001F0D6F954
:100D000020461021012200F0D1FBB7F81D00102170
:100D1000F881982028702046002200F0C7FB484642
:100D2000294632460323CDF8008001F0BFF9204662
:100D30001021012200F0BAFBB7F81D001021388203
:100D40009A2028702046002200F0B0FB4846294631
:100D500032460323CDF8008001F0A8F92046102187
:100D6000012200F0A3FBB7F81D00102178829C201F
:100D700028702046002200F099FB4846294632465A
:100D80000323CDF8008001F091F9204610210122C3
:100D900000F08CFBB7F81D001021B8829E2028704F
:100DA0002046002200F082FB4846294632460323B3
:100DB000CDF8008001F07AF920461021012200F0E0
:100DC00075FBB7F81D001021F8824FF6747028806B
:100DD0002046002200F06AFB48462946324602239C
:100DE000CDF8008001F062F920461021012201B007
:100DF000BDE8F04300F05ABBFEE70000B0B584B098
:100E00004FF480700090002040F6004401900120D3
:100E1000C4F201040290032003906946204600F0CA
:100E200035FA20464FF4807100F03AFBA0B1002063
:100E30000546012000F0FCF920464FF4807100F0D7
:100E40002FFB18B1C72D05F10100F1D3C62D03D931
:100E5000012004B0B0BD00BF20464FF4807100F007
:100E60001FFB18B1002004B0B0BD00BF002000BFC0
:100E70000546012000F0DCF920464FF4807100F0B7
:100E80000FFB18B9EF2D05F10100F1D30020EE2D75
:100E900088BF012004B0B0BDF0B585B040F6004475
:100EA000C4F201044FF480750126032701A92046EE
:100EB0000195CDE90266049700F0E8F920464FF469
:100EC0008071002200F0F2FA40F2EE2000F0B0F95A
:100ED00020464FF48071012200F0E8FA0F2000F064
:100EE000A7F9FFF78BFFCC2000F098F8442000F022
:100EF00095F801A92046CDE90156CDE9036700F038
:100F0000C5F920464FF48071002200F0CFFA40F27C
:100F1000EE2000F08DF920464FF48071012200F0A0
:100F2000C5FA0F2000F084F9FFF768FFCC2000F02D
:100F300075F8BE2000F072F800F020F8044600F0CA
:100F40001DF844EA002100F0F80000244A42F82885
:100F500008BF91B2C3F6B074084604BF0024CBF6B4
:100F6000B074FFF78DFB02460B4600202146FFF7C9
:100F700079FAFFF7C2FB05B0F0BD00002DE9F04F94
:100F800085B040F60044C4F2010401254FF4807A94
:100F90004FF0030B0DF1040800264FF0010900BFCC
:100FA00020464146CDE901A5CDE9035B00F06EF98D
:100FB00020464FF48071002200F078FA022000F001
:100FC00037F920464FF48071012200F06FFA0020BB
:100FD00002A981E8210820464146CDF804A000F08E
:100FE00055F90C2000F024F920464FF4807100F0F0
:100FF00057FA074600284FF0320018BF012700F0CB
:1010000017F9F801310640EA5166B9F1080F09F104
:101010000109C5D3304605B0BDE8F08F2DE9F04396
:1010200085B007464FFA80F84FF480700190012098
:1010300040F60044CDE902000320C4F2010404900C
:1010400001A9204600F022F920464FF480710022C9
:1010500007F0010500F02AFA02204FF00209002DE6
:1010600008BF3C2000F0E4F820464FF480710122D4
:1010700000F01CFA3C203C26002D08BF022000F0A6
:10108000D7F820464FF48071002207F0020500F0E7
:101090000DFA0220002D08BF3C2000F0C9F82046C0
:1010A0004FF48071012200F001FA3C20002D08BFAE
:1010B000022000F0BDF820464FF48071002207F0B6
:1010C000040500F0F3F90220002D08BF3C2000F0D9
:1010D000AFF820464FF48071012200F0E7F93C2080
:1010E000002D08BF022000F0A3F820464FF48071C5
:1010F000002207F0080500F0D9F90220002D08BFF2
:101100003C2000F095F820464FF48071012200F059
:10111000CDF93C20002D08BF022000F089F82046C0
:101120004FF48071002207F0100500F0BFF9022093
:10113000002D08BF3C2000F07BF820464FF4807162
:10114000012200F0B3F93C20002D08BF022000F07E
:101150006FF820464FF48071002207F0200500F060
:10116000A5F90220002D08BF3C2000F061F82046C0
:101170004FF48071012200F099F93C20002D08BF46
:10118000022000F055F820464FF48071002207F04D
:10119000400500F08BF90220002D08BF3C2000F034
:1011A00047F820464FF48071012200F07FF93C207F
:1011B000002D08BF022000F03BF820464FF480715C
:1011C000002200F073F9B8F1FF3FC8BF4FF03C09AF
:1011D000484600F02DF820464FF48071012200F0BF
:1011E00065F9B8F1FF3FC8BF0226304600F020F88D
:1011F00005B0BDE8F083000070470000EFF31080F9
:1012000072B600BFFEE70000B0B5044600F054F926
:10121000054640F20000C2F200000078611C18BFD1
:10122000044400BF00F048F9401BA042FAD3B0BD0F
:10123000B0B540F230146FF00501C2F20004081A94
:10124000216885B220464D6201F066F94FF6F970CB
:10125000854213D820684FF6FA7100BF426A92B2F5
:101260008A420BD2426A92B28A4207D2426A92B250
:101270008A4203D2426A92B28A42EFD340F23010DD
:10128000C2F20000BDE8B04001F07AB92DE9F04F9C
:1012900082B041F20042C4F201020E68042390427F
:1012A00008BF0323002E009300F0F68040F20C4E9E
:1012B0004FF6FF7CC4F2010E00220124C1F2100C93
:1012C0004FF0000A4FF0000943E000BF012502F093
:1012D0000C040F27A7402BEA070705FA04F43C4348
:1012E00043F82640D1F804B040F20045C4F20105AD
:1012F0005FEACB332B6854BF23EA080343EA0803B1
:101300002B606B685FEA8B3454BF23EA080343EA1F
:1013100008036B605FEACB24AB6854BF23EA080381
:1013200043EA08035FEA8B24AB60DEF800304FF03D
:10133000010454BF23EA080343EA0803CEF800304F
:101340000E680AF1010A36FA0AF302F1040200F00B
:10135000A38004FA0AF816EA080FF1D04B68634537
:1013600012DC122B56D8DFE803F0350B45495555F2
:1013700055555555555555555555554D510000BF69
:10138000D1F80C9046E000BF4FF6FF77C1F221077D
:10139000BB420FDC0027C1F21107BB421AD0002765
:1013A000C1F21207BB4215D00027C1F22107BB4290
:1013B00010D02FE00027C1F22207BB420AD000273D
:1013C000C1F23107BB4205D00027C1F23207BB4250
:1013D00020D100BF8B684BB1012B14BFC0F8148023
:1013E000C0F810804FF0080914E000BF4FF0040966
:1013F00010E000BFCB6803F108090BE04FF00009D3
:1014000008E000BFCB6803F1040903E0CB6803F1F7
:101410000C0900BF13460546BAF1080F24BF203B54
:1014200004352E680F279F40BE4309FA03F3334368
:101430002B60CB79DB067FF583AF41F21804C4F251
:10144000020423684FEA9A0643F0010323602368ED
:1014500040F6000403F001030193019B40F20043B6
:10146000C4F20103A3F57E7353F826B0C4F201045D
:10147000A0420FD040F60044C4F20104A0423FF461
:1014800025AF41F20004C4F20104009DA04208BF50
:1014900002251CE700251AE702B0BDE8F08F000026
:1014A0008068084018BF012070470000002A08BF6C
:1014B000090401617047000040F2BC10C2F2000054
:1014C0000068704770B5B8B3044690F83D0028B97D
:1014D000002084F83C00204600F09EF9242084F887
:1014E0003D002068016821F001010160016841F4BC
:1014F00000410160016821F40041016000F042FBFD
:1015000048F28041C0F21E0140F60013D4F804E016
:1015100088424FF00001C0F23D0348F2A16C4FF049
:10152000000238BF01219842C0F2010C38BF0122ED
:10153000E64538BF0A460AB1012070BD4DF6836109
:10154000C4F21B31A0FB01122168950C4B684FF4CB
:10155000967623F03F0343EA9243754344F6D3560D
:101560004B60C1F262060B6AA5FB0656B50923F073
:101570003F03E64538BF950C6A1C1A430A62CA69E4
:1015800048F2A0664CF6FF73C0F20106B64522EAA7
:1015900003020BD801384FEA4E03B0FBF3F00130E1
:1015A0006FF31F30042898BF04201EE0A3680138A1
:1015B00063B119230EFB03F3B0FBF3F001306FF3BB
:1015C0001F3078B100F5804008E000BF0EEB4E03FD
:1015D000B0FBF3F001306FF31F3028B100F500408D
:1015E00003E000BF012000E001201043C86108684B
:1015F000D4E9072320F0C00010431843086088682E
:1016000048F2FF3204F10C0690434CCE18431043CD
:10161000A5698860C86820F0FF0030432843C8608F
:10162000086840F00100086000202021206484F850
:101630003D10206384F83E0070BD00002DE9F043AA
:1016400083B0994616460F460446FFF735FF94F8D7
:101650003D1020291CD1054620688169890713D5D2
:10166000FFF72AFF401B1928F6D90020202120630C
:1016700084F83D1084F83E00216C41F02001216483
:1016800084F83C0004E000BF94F83C10012903D129
:10169000022003B0BDE8F083012284F83C200368F7
:1016A000DDE90B180A9ADB0703D1036843F0010355
:1016B0000360036823F400630360212084F83D0085
:1016C000402084F83E000020206462626185608DC5
:1016D000394620850020CFF6FF70E0622046324672
:1016E0004B46CDF80080019501F0DCF820B10120D7
:1016F00003B0BDE8F08300BF208D002850D02068E3
:1017000008F10106014651F8142F12062CD49EB19F
:10171000B8F1000F5AD000BF086840055ED4FFF74B
:10172000CBFE401B404556D82068014651F8142F87
:101730001206F1D518E000BF0A6852054ED40A68B7
:10174000120611D40A68520548D40A6812060BD44E
:101750000A68520542D40A68120605D40A6852057E
:101760003CD40A681206E7D5626A114611F8013BBB
:101770000361238D6162591E2185678D013F678555
:1017800047697F070AD50F0408D051780161911C81
:101790006162991E2185628D013A62850904B1D189
:1017A000204641462A4601F0B7F938BB2068016857
:1017B00041F400710160202084F83D00002084F88D
:1017C0003E0084F83C0003B0BDE8F08308684005A3
:1017D00004D4FFF771FE202004E000BF6FF48060A6
:1017E0000860042000212022216384F83D2084F831
:1017F0003E10226C1043206484F83C10206C0428B6
:101800007FF475AF2068016841F400710160012028
:1018100003B0BDE8F083000010B586B045F200418A
:101820000068C4F2000100228842049202D006B08F
:1018300010BD00BF41F21804C4F20204206840F059
:1018400008002060206800F0080001900198C02086
:101850000290122003900320059001F5384002A960
:10186000FFF714FD606840F400106060606800F4E9
:1018700000100190019806B010BD000040F2000079
:1018800040F2BC11C2F20000C2F2000100780A6806
:10189000104408607047000080B542F20000C4F2B6
:1018A0000200016841F010010160032000F07AF8A5
:1018B0000F2000F005F800F027F8002080BD0000A0
:1018C00070B540F20006C2F2000640F22401327800
:1018D000C2F200014FF47A730968B3FBF2F20446D6
:1018E000B1FBF2F1084600F033FD0F2C4FF001057B
:1018F00008D838B94FF0FF3021460022002500F00B
:1019000025F87460284670BD82B041F21800C4F218
:1019100002000168022241F001010160016801F04A
:10192000010101910199416841F080514160406895
:1019300000F08050009000980420C4F2010001687B
:1019400062F31A61016002B07047000010B54EF6F4
:101950000C5CCEF2000CDCF80030C3F3022E8EF0EB
:101960000704042C28BF0424BEF103034FF0FF3EFC
:101970000EFA04F438BF0023A14399400EFA03F392
:101980009A43114300F00F02043A624409010C32F9
:1019900000F16043B0F1FF3FC8BF03F5644211702E
:1019A00010BD00004EF60C51CEF200010A684FF651
:1019B000FF031A4060F30A2242F0806040F0FD709D
:1019C000086070472DE9F04381B0002800F0858061
:1019D00042F20008C4F202080446D8F800000D469E
:1019E00000F0070088420CD2D8F8000020F0070071
:1019F0002843C8F80000D8F8000000F00700A8420B
:101A00006BD1206841F204098107C4F2020917D59D
:101A1000410705D5D9F8001041F4E061C9F800107C
:101A2000010705D5D9F8001041F46051C9F800103C
:101A3000D9F80010A26821F0F0011143C9F8001094
:101A4000C00741D1D8F8000000F00700A8420CD927
:101A5000D8F8000020F007002843C8F80000D8F8A4
:101A6000000000F00700A84237D12068410707D5E1
:101A7000D9F80010E26821F4E0611143C9F80010C0
:101A8000000708D5D9F80000216920F4605040EA29
:101A9000C100C9F80000D9F8002002F00C000828A5
:101AA00041F20020C0F27A0050D146F60613C2F38C
:101AB0008341C0F60003595CD2033BD440F60010CA
:101AC000C0F23D00484341E0606802280AD0012886
:101AD0002AD159F8041C890308D4012001B0BDE8BB
:101AE000F08300BF59F8041C8901F6D5D9F800101D
:101AF00021F003010843C9F80000FFF7DDFC0646AA
:101B000041F28837D9F80000616800F00C00B0EBB2
:101B1000810F97D0FFF7D0FC801BB842F2D9032089
:101B200001B0BDE8F08300BF59F8041C8907D4D583
:101B3000DCE700BFD9F8002043F60A33C2F3404285
:101B4000C0F600039A5C4843B0FBF2F0D9F80010ED
:101B500043F60C32C1F30311C0F60002515C40F2AF
:101B6000240220FA01F140F20400C2F200000068F1
:101B7000C2F200021160FFF7A3FE002001B0BDE831
:101B8000F083000040F2240041F20401C2F20000A0
:101B9000C4F202010068096843F61C32C1F3022155
:101BA000C0F60002515CC8407047000040F22400BB
:101BB00041F20401C2F20000C4F2020100680968A7
:101BC00043F61C32C1F3C221C0F60002515CC8408A
:101BD000704700002DE9F04182B0002868D004462B
:101BE000007841F20006C007C4F2020625D07068F2
:101BF00000F00C0004281BD0706800F00C000828CE
:101C000002D17068C00313D46068002800F06881B6
:101C1000B0F5A02F00F07C81B0F5803F00F07C8112
:101C2000306820F480303060306820F4802076E125
:101C30003068800301D56068D0B32078800718D55C
:101C4000706810F00C0F07D0706800F00C000828C6
:101C50006ED17068C0036BD43068800702D52069EC
:101C6000012825D13068616920F0F80040EAC10000
:101C70003060207800071FD42078400732D4E5690F
:101C800095B1706800F00C00082840F08F80012D9D
:101C90000ED07068216A00F480328A4208D1616AED
:101CA00000F47010884203D1002002B0BDE8F0813A
:101CB000012002B0BDE8F081A069002862D00020B8
:101CC000C4F242200121C0F88014FFF7F5FB05465D
:101CD000706A800700F18C80FFF7EEFB401B022842
:101CE000F6D92AE1F06910F0805808D1F06940F087
:101CF0008050F061F06900F080500090009847F249
:101D00000007C4F200073868C00529D4386840F4D9
:101D100080703860FFF7D0FB054600BF3868C0050B
:101D20001ED4FFF7C9FB401B6428F7D905E100BFAB
:101D30002069002840F20000C4F2422000F08280B6
:101D400001210160FFF7B8FB054600BF306880073E
:101D50003FF588AFFFF7B0FB401B0228F6D9ECE057
:101D6000E068002800F08080052800F097800128B6
:101D700000F09880306A20F001003062306A20F074
:101D8000040092E00020C4F242200021C0F8801438
:101D9000FFF792FB054600BF706A80077FF56CAFC6
:101DA000FFF78AFB401B0228F6D9C6E00027C4F2E1
:101DB000422700203866FFF77FFB022D05460BD136
:101DC0003068800140F1BE80FFF776FB401B02289F
:101DD0004FF00300F4D968E7306880017FF564AF05
:101DE000FFF76AFB401B02284FF00300F4D95CE7C1
:101DF00040F22400C2F20000006844F6D351C1F260
:101E00006201A0FB0101480A019000BF00BF0198D8
:101E1000411E002801913FF42FAF00BF0198411EE1
:101E2000002801913FF428AF00BF0198411E00280F
:101E300001913FF421AF00BF0198411E002801919C
:101E4000E4D119E700210160FFF736FB054600BF2A
:101E5000306880077FF50DAFFFF72EFB401B02288F
:101E60004FF00300F4D920E7306A20F0010030621F
:101E7000306A20F004003062FFF71EFB054641F295
:101E8000883700BF306A800720D5FFF715FB401B5D
:101E9000B8424FF00300F5D907E700BF306A40F0C1
:101EA00004003062306A40F001003062FFF704FB4A
:101EB000054641F2883700BF306A800706D4FFF735
:101EC000FBFA401BB842F7D937E000BFB8F1000F6A
:101ED0007FF4D5AEF06920F08050F061CFE600BF0E
:101EE000306820F480303060306820F4802030602A
:101EF000FFF7E2FA054600BF306880037FF59DAE2C
:101F0000FFF7DAFA401B64284FF00300F4D9CCE65F
:101F1000306840F480203060306840F480303060B9
:101F2000FFF7CAFA054600BF306880033FF585AE6B
:101F3000FFF7C2FA401B6428F6D9032002B0BDE8BF
:101F4000F08100BF206AB0F5803F05D17168A268BA
:101F500021F40031114371607168626A21F47411D7
:101F600010430843706001203866FFF7A5FA044665
:101F7000306880013FF598AEFFF79EFA001B0228FB
:101F80004FF00300F4D990E670B538B10446406ACA
:101F900030B10020206104F1140007E0012070BD81
:101FA0006068B0F5827F03D004F11C00002101605D
:101FB0000026A66294F8510020B9204684F85060AB
:101FC00000F038F8022084F8510094E8071001F47A
:101FD0008271036802F4044223F040030360236922
:101FE00011440CF40062114403F0020263691144CD
:101FF00003F00102A369E569114403F4007211447E
:1020000005F03802256A114405F08002A56A1143E3
:1020100005F4005211430160042101EA13414160BB
:10202000C16921F40061C1610120666584F8510035
:10203000304670BD70B586B040F60004C4F20104AD
:10204000006804F5205100268842049602D006B0AC
:1020500070BD00BF41F21800C4F20200016802AD79
:1020600041F480510160016801F4805101910199AE
:10207000016841F0040101600068294600F0040095
:1020800001900198A0200290022003900320059067
:102090002046FFF7FBF84020CDE9020620462946FE
:1020A0000496FFF7F3F806B070BD00002DE9F04389
:1020B00081B0044690F85000012803D1022001B0FD
:1020C000BDE8F08301201E4615460F4684F85000F7
:1020D000FFF7F2F994F85110814601290CD060689D
:1020E000B0F5827F40F0A080A06800284FF0020089
:1020F00008BF042940F09980002F4FF0010018BF5D
:10210000002D00F09280002E00F08F8094F8510096
:10211000002104281CBF052084F851006165A563D7
:10212000E687A6872763E6862068A6862164616421
:102130000168490603D4016841F04001016061680B
:10214000731EE268B1FA81F1B3FA83F3DDF82080FF
:1021500049095B09B2F5006F41EA03016ED131B163
:1021600037F8021BC1602763E08E0138E086012545
:1021700018F1010031D101E0FFF79EF9E08E18B9A6
:10218000E08F002800F0C2802068816889070CD5A4
:10219000E18E51B1012D08D1216B002531F8022BC0
:1021A000C2602163E18E0139E1868168C907E3D00D
:1021B000E18F0029E0D0C068A16B012521F8020B56
:1021C000A163E08F0138E087D6E700BFFFF774F91D
:1021D000A0EB0900404580F0A980E08E18B9E08F9F
:1021E000002800F093802068816889070CD5E18E73
:1021F00051B1012D08D1216B002531F8022BC260AD
:102200002163E18E0139E1868168C907DED0E18F63
:102210000029DBD0C068A16B012521F8020BA16366
:10222000E08F0138E087D1E70220012184F85110C6
:10223000002184F8501001B0BDE8F08339B139783D
:102240000173206B01302063E08E0138E0860125A8
:1022500018F1010032D101E0FFF72EF9E08E10B93C
:10226000E08F002852D02068816889070ED5E18E62
:1022700061B1012D0AD1216B002509780173216B11
:10228000206801312163E18E0139E1868168C90747
:10229000E2D0E18F0029DFD0C068A16B0125087072
:1022A000A06B0130A063E08F0138E087D4E700BF66
:1022B000FFF702F9A0EB0900404539D2E08E08B9DA
:1022C000E08F18B32068816889070ED5E18E61B16F
:1022D000012D0AD1216B002509780173216B20683B
:1022E00001312163E18E0139E1868168C907DFD0C0
:1022F000E18F0029DCD0C068A16B01250870A06BBC
:102300000130A063E08F0138E087D1E720468021CB
:1023100042464B4601F0D2F860B1606D40F02000BB
:1023200060652020606501207FE700BF03207CE717
:1023300003207AE7A06800284FF000007FF475AF13
:1023400000902168CA6800928968009100996CE742
:10235000411E0020B0EB116F1CBF012070474EF2F0
:102360001002CEF2000251604EF62351CEF200016F
:10237000F0230B70072190601160704710B590F842
:102380003C20012A4FF0020233D080F83D20026841
:10239000D2F804E0D2F808C00C682EF07003234392
:1023A00040F2FF74C4F20004A24253600ADCB2F1AE
:1023B000804F13D040F20043C4F200039A420DD084
:1023C00011E000BF42F60043C4F201039A4205D077
:1023D00040F60003C4F200039A4204D149682CF08D
:1023E0008003194391600121002280F83D1080F89C
:1023F0003C20104610BD0000002804BF012070479B
:1024000010B5044690F83D0028B9002084F83C003F
:10241000204600F067F8022084F83D00206840F272
:10242000FF730268C4F2000342F6004C9842C4F203
:10243000010C15DCB0F1804F1AD040F20041C4F21B
:102440000001884214D0984218DCB0F1804F1DD0B2
:1024500040F20041C4F20001884217D01AE000BFE8
:10246000604505D040F60001C4F200018842EAD17F
:10247000A16822F070020A439842E6DD604505D06B
:1024800040F60001C4F20001884203D1216922F420
:1024900040720A43A36922F08001D4F804E0E268A4
:1024A000194360450160C262C0F828E002D1616949
:1024B000CCF8301001214161002084F8461084F8E6
:1024C0003E1084F83F1084F8401084F8411084F8DE
:1024D000421084F8431084F8441084F8451084F8BE
:1024E0003D1010BD81B0006842F60041C4F2010108
:1024F000884201D001B0704741F21800C4F20200D6
:10250000016841F400610160006800F4006000901F
:10251000009801B07047000090F83D1001291CBFE1
:1025200001207047022180F83D10006840F2FF71E1
:10253000C4F20001884209DCB0F1804F12D040F2B1
:102540000041C4F2000188420CD012E042F6004182
:10255000C4F20101884205D040F60001C4F2000136
:10256000884206D1816801F00701062904BF0020D6
:102570007047016841F001010160002070470000D0
:102580000146006841F21113026A1A4204D0012286
:10259000002081F83D207047026A40F244431A420D
:1025A000F5D1026822F0010202600122002081F8C8
:1025B0003D20704780B590F83C20012A4FF0020280
:1025C00000F0BF8080F83D20D0F800C04FF6777251
:1025D000DCF8083023EA0202CCF808200B683F2B15
:1025E0001CDD5F2B20DD602B50D0B3F5005F6DD07C
:1025F000702B40F0A080D1E901E3C968DCF8082025
:1026000043EA0E0322F47F4243EA01211143CCF84E
:102610000810DCF8081041F077018AE01F2B29DC54
:1026200063B3102B2AD086E0402B63D0502B40F0B0
:102630008280D1F804E0C968DCF82030DCF8202082
:1026400022F00102CCF82020DCF8182022F0F00261
:1026500042EA011123F00A0242EA0E02CCF81810F5
:10266000CCF82020DCF8081041F0570121F02001BF
:102670005FE000BF202B01D0302B5CD1DCF80810CC
:1026800021F07001194341F0070152E0D1F804E054
:10269000C968DCF8203023F01003CCF82030DCF8D7
:1026A0001830DCF8202023F4704322F0A00243EA23
:1026B000013142EA0E12CCF81810CCF82020DCF8D8
:1026C000081041F0670121F0100132E0D1E901E387
:1026D000C968DCF8082043EA0E0322F47F4243EA8B
:1026E00001211143CCF80810DCF8081041F48041B6
:1026F0001FE000BFD1F804E0C968DCF82030DCF846
:10270000202022F00102CCF82020DCF8182022F052
:10271000F00242EA011123F00A0242EA0E02CCF86A
:102720001810CCF82020DCF8081041F0470121F007
:102730003001CCF808100121002280F83D1080F80B
:102740003C20104680BD0000002804BF01207047D7
:1027500010B5044690F83D0028B9002084F83C00EC
:10276000204600F05FF8242084F83D002068D4E97A
:102770000212C36823F40053C360036923F4405377
:102780001A430261D4E904231143C268194341F298
:102790000C639A431143C1604169A26921F44071FD
:1027A000114343F60002C4F201029042416103D09A
:1027B000FFF7E8F902E000BFFFF7F8F962681921B6
:1027C00048439100B0FBF1F048F21F51C5F2EB1104
:1027D000A0FB01235A096FF0630302FB03003223BD
:1027E00003EB0010A0FB0101F02303EA5113206862
:1027F00003EB0212C1F3431111448160016921F41A
:1028000090410161416921F02A014161C16841F4AF
:102810000051C16000202021206484F83D1084F81C
:102820003E1010BD70B586B040F60004C4F201043D
:10283000006804F5405100268842049602D006B094
:1028400070BD00BF41F21800C4F20200016802AD81
:1028500041F480410160016801F4804101910199D6
:10286000016841F0040101600068294600F004009D
:10287000019001984FF40070029002200390032011
:1028800005902046FEF702FD4FF48060CDE9020678
:10289000204629460496FEF7F9FC06B070BD0000FC
:1028A000FEE700002DE9F04381B004460068904641
:1028B0000268099D42F4807202604269089E99464E
:1028C000D2070F461DD1711C11D0002E00F0D2800E
:1028D000FEF7F2FD401BB04200F2CE802068416955
:1028E000C907F5D00DE000BF4169C90709D14169A9
:1028F000C90706D14169C90704BF41695FEAC171CF
:10290000F2D007F0FE0101614169890738D44169BD
:10291000721C01F4806111D049BB002E00F0E880E8
:10292000FEF7CAFD401BB04200F2E4802068416916
:10293000890725D441694905F2D518E0B9B941693B
:1029400089071DD44169490511D44169890717D404
:10295000416949050BD44169890711D44169490589
:1029600005D4416989070BD441694905E7D5016858
:1029700041F4007101606FF4806141610420BAE0AC
:1029800000210091014651F8142F00924A680092EC
:10299000009A0A6812061ED4002E00F08580721C70
:1029A0004DD10A68520500F187800A68120612D4D8
:1029B0000A68520500F180800A6812060BD40A6882
:1029C000520579D40A68120605D40A68520573D4F0
:1029D0000A681206E5D5B9F1010F43D04FEA182174
:1029E0000161014651F8142F12063BD4002E5BD032
:1029F000721C29D10A6852055ED40A68120631D4C5
:102A00000A68520558D40A6812062BD40A6852057F
:102A100052D40A68120625D40A6852054CD40A68B2
:102A20001206E7D51EE000BFFEF746FD401BB04290
:102A30003FD82068014651F8142F1206CBD40868FD
:102A40004005F1D538E000BF0868400534D4FEF7F2
:102A500033FD401BB0422CD82068014651F8142F9A
:102A60001206F1D55FFA88F10161002001B0BDE8DE
:102A7000F08300BFFEF720FD00202021206384F8B2
:102A80003D1084F83E00216C41F020012164216852
:102A900084F83C000868C00544BF4FF4007020640F
:102AA000032001B0BDE8F0830868400504D4FEF7B8
:102AB00003FD202004E000BF6FF480600860042064
:102AC00000212022216384F83D2084F83E10226CEE
:102AD0001043206484F83C10206C042817D120682F
:102AE000016841F400710160012001B0BDE8F0838C
:102AF000FEF7E2FC202000212022216384F83D2003
:102B000084F83E10226C1043206484F83C100120AD
:102B100001B0BDE8F083000070B50368044653F8C7
:102B2000140F400737D40E46F1B1701C24D100BFFA
:102B30001868400532D4186840072CD4186840053E
:102B40002CD41868400726D41868400526D4186885
:102B5000400720D41868400520D4186840074FF07B
:102B6000000048BF70BDE3E71868400516D4FEF7C3
:102B7000A3FC202016E000BF154600BF18684005E2
:102B80000CD4FEF799FC401BB042F2D8236853F8EE
:102B9000140F4007F2D5002070BD00BF6FF48060B5
:102BA0001860042000212022216384F83D2084F84D
:102BB0003E10226C10432064012084F83C1070BD4C
:102BC0002DE9F04184B041F21800C4F2020001681E
:102BD00040F6004841F0100101600168C4F20108AC
:102BE00001F01001009100990168A8F5806541F09D
:102BF000200101600168012201F02001009100998B
:102C00000168102641F0040101600168012701F00C
:102C1000040100910099016841F008010160006819
:102C2000102100F00800009000982846FEF73EFCB6
:102C300040464FF218310022FEF738FCCDE900671C
:102C40006E4603242846314602970394FEF71EFB86
:102C50004FF21820CDE900070220CDE902044046DA
:102C60003146FEF713FB4FF48070CDE90007404674
:102C70003146CDE90274FEF709FB04B0BDE8F081EE
:102C800080B540F2840045F20041C2F20000C4F277
:102C9000000148F2A06200234FF4804CC0F2010210
:102CA00080E80E00C0E9033CC0E90533C0E9073302
:102CB000FEF708FC002808BF80BDBDE88040FEF795
:102CC0009DBA0000B0B540F2D80043F20001C2F254
:102CD0000000C4F201014FF48272002380E80E006C
:102CE00000F10C014FF0020C4FF0010E4FF4007494
:102CF000282581E808500A21C0E90645C0E90833C3
:102D0000C0E90A31FFF740F9002808BFB0BDBDE8AF
:102D1000B040FEF773BA000080B586B040F23010C4
:102D200042F600420021C2F20000C4F20102472331
:102D30004FF6FF7C0591CDE90311CDE90011C0E903
:102D40000023C0E9021CC0E904118161FFF754FBB4
:102D5000002818BFFEF752FA4FF48050029040F25C
:102D60003010C2F2000002A9FFF724FC002818BFAF
:102D7000FEF744FA40F23010C2F200006946FFF755
:102D8000FDFA002818BFFEF739FA06B080BD000032
:102D900080B540F2781043F60001C2F20000C4F2A0
:102DA000010100234FF00C0C4FF4165280E80E0086
:102DB000C0E90333C0E905C3C361FFF7C5FC0028C0
:102DC00008BF80BDBDE88040FEF718BAFEE70000EE
:102DD000FEE700002DE9F04F85B040F284040025A5
:102DE0004FF480760127C2F200040DF1120B0DF1B1
:102DF00013084FF0000900BF09F1B0008DF8100072
:102E000004A8CDE90007204678210022012302967C
:102E1000FEF714FC0DF11100CDE9000720467821E2
:102E2000002201238DF811500296FEF707FC1020B6
:102E30008DF812002046782100220123CDE900B749
:102E40000296FEF7FBFB4FF0000A00BF20467821F8
:102E5000402201238DF81350CDE900870296FEF73A
:102E6000EDFB0AF101004FFA80FABAF1FF3FEDDC09
:102E7000B9F1070F09F10109BED305B0BDE8F08F24
:102E800080B5C820FEF7C0F9BDE8804000F090BBD7
:102E90002DE9F04F89B0064640B20D460028A2F158
:102EA000200744BF02350026102BA5F1500040F04A
:102EB0003F8140F284048DF818004FF0010906A804
:102EC000C2F200044FF48078CDE900092046782151
:102ED00000220123CDF80880FEF7B0FB3009103046
:102EE00005908DF819000DF11900CDE90009204673
:102EF000782100220123CDF80880FEF79FFB06F021
:102F00000F0004908DF81A000DF11A00CDE90009A8
:102F10002046782100220123CDF80880FEF78EFBA1
:102F2000F8B243F64C520101C0F60002515C02EBCC
:102F300000168DF81B100DF11B072046782140224A
:102F40000123CDE90079CDF80880FEF777FB707892
:102F5000317996F802A096F803B003918DF81B0022
:102F60002046782140220123CDE90079CDF8088060
:102F7000FEF764FB20467821402201238DF81BA038
:102F8000CDE90079CDF80880FEF758FB204678217E
:102F9000402201238DF81BB0CDE90079CDF80880DF
:102FA000FEF74CFB039878218DF81B002046402249
:102FB0000123CDE90079CDF80880FEF73FFB707959
:102FC00078218DF81B00204640220123CDE90079AD
:102FD000CDF80880FEF732FBB07978218DF81B0020
:102FE000204640220123CDE90079CDF80880FEF784
:102FF00025FBF07978218DF81B0020464022012323
:10300000CDE90079CDF80880FEF718FBA5F14F0057
:103010008DF81C0007A8CDE9000920467821002280
:103020000123CDF80880FEF709FB059878218DF87B
:103030001D000DF11D00CDE90009204600220123ED
:10304000CDF80880FEF7FAFA049878218DF81E0072
:103050000DF11E00CDE90009204600220123CDF824
:103060000880FEF7EBFA307A0DF11F058DF81F008E
:103070002046782140220123CDE90059CDF808806F
:10308000FEF7DCFA707A78218DF81F002046402286
:103090000123CDE90059CDF80880FEF7CFFAB07AC8
:1030A00078218DF81F00204640220123CDE90059E8
:1030B000CDF80880FEF7C2FAF07A78218DF81F006B
:1030C000204640220123CDE90059CDF80880FEF7C3
:1030D000B5FA307B78218DF81F002046402201236D
:1030E000CDE90059CDF80880FEF7A8FA707B782169
:1030F0008DF81F00204640220123CDE90059CDF86C
:103100000880FEF79BFAB07B78218DF81F002046DF
:1031100040220123CDE90059CDF80880FEF78EFA50
:10312000F07BCDE900598DF81F00204689E000BFF3
:1031300040F2840B8DF820004FF0010A08A8C2F27B
:10314000000B4FF48078CDE9000A58467821002220
:103150000123CDF80880FEF771FA300910308DF8A0
:1031600021000DF12100CDE9000A58467821002206
:103170000123CDF80880FEF761FA06F00F008DF804
:1031800022000DF12200CDE9000A584678210022E4
:103190000123CDF80880FEF751FAF8B243F6243146
:1031A00000EB4000C0F6000111F8102001EB4005D3
:1031B0008DF823200DF12306584678214022012363
:1031C000CDE9006ACDF80880FEF738FA6878AF7864
:1031D000EC7895F804908DF8230058467821402229
:1031E0000123CDE9006ACDF80880FEF727FA58469A
:1031F0007821402201238DF82370CDE9006ACDF8B3
:103200000880FEF71BFA58467821402201238DF8EA
:103210002340CDE9006ACDF80880FEF70FFA584642
:103220007821402201238DF82390CDE9006ACDF862
:103230000880FEF703FA6879CDE9006A8DF823006B
:103240005846782140220123CDF80880FEF7F6F990
:1032500009B0BDE8F08F00002DE9F04F87B00646B9
:10326000A1F1500040F284058DF81400012705A853
:10327000C2F20005144604914FF4807ACDE90007AC
:103280002846782100220123CDF808A0FEF7D6F9C0
:10329000300900F110080DF11500CDE900072846AE
:1032A0007821002201238DF81580CDF808A0FEF7C3
:1032B000C5F90DF1160006F00F0BCDE90007284601
:1032C0007821002201238DF816B0CDF808A0FEF772
:1032D000B5F944F22C31C4EB0420C0F6000101EB37
:1032E00040064FF0FF340DF1170900BF3019407848
:1032F00078218DF81700284640220123CDE9009758
:10330000CDF808A0FEF79AF901341F2CEED10498ED
:1033100040F284044F388DF818004FF0010A06A8D7
:10332000C2F200044FF48079CDE9000A20467821EA
:1033300000220123CDF80890FEF780F90DF1190065
:10334000CDE9000A20467821002201238DF819805A
:10335000CDF80890FEF772F90DF11A00CDE9000AD8
:1033600020467821002201238DF81AB0CDF808906C
:10337000FEF764F9FE250DF11B0700BF70194078B8
:1033800078218DF81B00204640220123CDE9007AE8
:10339000CDF80890FEF752F90135B5F58F7FEDD1E4
:1033A00007B0BDE8F08F00002DE9F04F85B0002B8D
:1033B000049103907CD00E981C464508981E0090FE
:1033C00058421746591E4FF000085FFA80FB42F240
:1033D000107900264FF0000A0291019212E000BF1E
:1033E0000126039940F0300205FB08110E9BC8B27C
:1033F0000499D2B2FFF74CFD08F10108A0450AF18B
:10340000010A55D06FEA0A00C0B2584502D1012026
:103410002AE000BF00996FEA0800A1EB0801C9B2D9
:10342000032900EB040101D2012009E001F0FC02B4
:10343000002301200433DFB2974200FB09F0F9D1E9
:10344000019F11F003010FD0012903D100EB80008F
:10345000400009E04FF47A72424302294FF06401C0
:1034600008BF00FB01F21046B7FBF0F04CF6CD416F
:10347000CCF6CC41A0FB0112D10801EB8101002E5A
:10348000A0EB4100ADD102994145AADD0028A7D1AA
:103490000398049905FB08000E9BC0B22022FFF799
:1034A000F7FC002608F10108A0450AF1010AA9D19C
:1034B00005B0BDE8F08F0000704700002DE9F04135
:1034C00082B01E4690460D460446FDF7F5FF301AC1
:1034D00000EB0807FDF7F0FF40F22401C2F2000103
:1034E0000968C1F3CB317943019121688A682A4088
:1034F000AA4227D1064618F101001FD0FDF7DCFFD4
:10350000801BB84222D2019801990028A1F1010143
:1035100001912168896808BF074601EA0500A842B1
:10352000ECD00FE088682840A8420BD1886828407A
:10353000A84207D188682840A84203D1886828405B
:10354000A842EFD0002002B0BDE8F081D4E900012C
:103550004268B1F5827F22F0E00242600AD1A168A0
:10356000B1F5004F02D0B1F5806F03D1016821F0B1
:1035700040010160A16AB1F5005F07D1016821F443
:1035800000510160016841F400510160012084F89C
:103590005100002084F85000032002B0BDE8F08103
:1035A00070470000FEF76AB970470000FEE70000B0
:1035B000F0B583B040F2840440F20807C2F2000480
:1035C0004FF480750126C2F20007204678210022C0
:1035D0000123CDE900760295FEF730F8781CCDE99D
:1035E000000620467821002201230295FEF726F8E6
:1035F000B81CCDE90006204678210022012302955F
:10360000FEF71CF8F81CCDE90006204678210022C0
:1036100001230295FEF712F8381DCDE90006204679
:103620007821002201230295FEF708F8781DCDE9E4
:10363000000620467821002201230295FDF7FEFFB7
:10364000B81DCDE90006204678210022012302950D
:10365000FDF7F4FFF81DCDE9000620467821002291
:1036600001230295FDF7EAFF07F10800CDE9000606
:1036700020467821002201230295FDF7DFFF07F1A4
:103680000900CDE900062046782100220123029599
:10369000FDF7D4FF07F10A00CDE9000620467821A6
:1036A000002201230295FDF7C9FF07F10B00CDE9C8
:1036B000000620467821002201230295FDF7BEFF77
:1036C00007F10C00CDE900062046782100220123F5
:1036D0000295FDF7B3FF07F10D00CDE90006204686
:1036E0007821002201230295FDF7A8FF07F10E00C3
:1036F000CDE9000620467821002201230295FDF73E
:103700009DFF07F10F00CDE9000620467821002239
:1037100001230295FDF792FF07F11000CDE90006A5
:1037200020467821002201230295FDF787FF07F14B
:103730001100CDE9000620467821002201230295E0
:10374000FDF77CFF07F11200CDE900062046782145
:10375000002201230295FDF771FF07F11300CDE967
:10376000000620467821002201230295FDF766FF1E
:1037700007F11400CDE9000620467821002201233C
:103780000295FDF75BFF07F11500CDE90006204625
:103790007821002201230295FDF750FF07F1160062
:1037A000CDE9000620467821002201230295FDF78D
:1037B00045FF07F11700CDE90006204678210022D9
:1037C00001230295FDF73AFF07F11800CDE9000645
:1037D00020467821002201230295FDF72FFF07F1F3
:1037E0001900CDE900062046782100220123029528
:1037F000FDF724FF07F11A00CDE9000620467821E5
:10380000002201230295FDF719FF03B0F0BD00006F
:1038100040F60040C4F2010010210122FDF746BE2F
:1038200090B0FEF739F800240120CDE90B44CDE932
:10383000094406900A904FF4E0104FF480310225BD
:103840000F9006A8CDE90714CDE90D51FEF7C2F996
:1038500020B1EFF3108072B6FEE700BF0F20CDE974
:1038600001054FF48060CDE9040401A8022103940E
:10387000FEF7A8F820B1EFF3108072B6FEE700BFA4
:10388000FFF79EF9FFF7FCF9FFF746FAFFF780FA1A
:10389000FFF718FAFFF7F4FAFFF79CFA102000215F
:1038A00000224FF0100BFFF7D7FC2020002101224F
:1038B000FFF7D2FC302000210222FFF7CDFC402090
:1038C00000210322FFF7C8FC502000210422FFF74B
:1038D000C3FC602000210522FFF7BEFC102002215E
:1038E0000622FFF7B9FC202002210722FFF7B4FCD3
:1038F000302002210822FFF7AFFC402002210922DC
:10390000FFF7AAFC502002210A22FFF7A5FC602045
:1039100002210B22FFF7A0FC002004210C22FFF75C
:103920009BFC102004210D22FFF796FC202004218F
:103930000E22FFF791FC302004210F22FFF78CFCB0
:10394000402004213A221023FFF7A2FA002006218A
:103950000C22FFF781FC102006210D22FFF77CFCD2
:10396000202006211022FFF777FC302006211122AB
:10397000FFF772FC402006211222FFF76DFC502059
:1039800006213A221023FFF783FAFDF7DDF840F213
:10399000000AC4F2201A5AE02846FCF79BFE0546AE
:1039A0000E46FCF7CFFF4EF28061C4F2C571FCF702
:1039B00074FCFCF78FFE47F6E12242F247130746FC
:1039C0000C4628463146CAF61462C4F24003FCF79E
:1039D000A2FC02460B464CF6CD404DF6CC41CCF64F
:1039E000CC40C4F27D01FCF7AFFD3A462346FCF71C
:1039F00039FDFCF782FE0446FCF753FE0546FCF752
:103A000020FE01462046FCF710FC5146FCF713FC53
:103A1000FCF747FE0446EAB2582006210223CDF8FF
:103A200000B0FFF7C1FC682006212E221023FFF70B
:103A30002FFA7020062122460123CDF800B0FFF7AF
:103A4000B3FC7820062125221023FFF721FAFDF789
:103A500023FA0546FCF725FE8046FCF7F2FD0146F9
:103A60002846FCF7E2FB5146FCF7E5FBFCF719FEA4
:103A700081465FFA88F2482004210223CDF800B085
:103A8000FFF792FC582004212E221023FFF700FAA2
:103A9000602004214A460123CDF800B0FFF784FCE2
:103AA0006820042143221023FFF7F2F90021284661
:103AB000C4F2A011FCF7B7FD00287FF46DAF00F051
:103AC00003F8FFF7A5FE67E710B540F60044C4F21F
:103AD000010420464FF400710122FDF7E7FC204667
:103AE00008210122BDE81040FDF7E0BC02E008C853
:103AF000121F08C1002AFAD170477047002001E068
:103B000001C1121F002AFBD1704701020000000012
:103B1000000000000102030406070809000000007D
:103B2000010203040000000000000000002F00005C
:103B300000000700070000147F147F1400242A7F70
:103B40002A120062640813230036495522500000EF
:103B50000503000000001C224100000041221C005F
:103B60000014083E08140008083E0808000000A0E1
:103B700060000008080808080000606000000020DD
:103B800010080402003E5149453E0000427F4000BB
:103B9000004261514946002141454B310018141241
:103BA0007F10002745454539003C4A49493000010E
:103BB0007109050300364949493600064949291E5D
:103BC00000003636000000005636000000081422BF
:103BD00041000014141414140000412214080002BF
:103BE0000151090600324959513E007C1211127CE4
:103BF000007F49494936003E41414122007F414111
:103C0000221C007F49494941007F09090901003E02
:103C10004149497A007F0808087F0000417F410040
:103C2000002040413F01007F08142241007F4040B6
:103C30004040007F020C027F007F0408107F003E9E
:103C40004141413E007F09090906003E4151215E84
:103C5000007F091929460046494949310001017F81
:103C60000101003F4040403F001F2040201F003F17
:103C70004038403F006314081463000708700807C9
:103C800000615149454300007F41410000552A55DC
:103C90002A55000041417F00000402010204004057
:103CA0004040404000000102040000205454547879
:103CB000007F484444380038444444200038444499
:103CC000487F00385454541800087E090102001837
:103CD000A4A4A47C007F080404780000447D400074
:103CE000004080847D00007F102844000000417F58
:103CF0004000007C04180478007C08040478003834
:103D00004444443800FC242424180018242418FCBB
:103D1000007C0804040800485454542000043F4424
:103D20004020003C4040207C001C2040201C003CE7
:103D30004030403C004428102844001CA0A0A07C37
:103D4000004464544C44141414141414000000006F
:103D5000000000000000000000000000000000F86B
:103D600000000000000000333000000000100C06CE
:103D7000100C0600000000000000000040C0784069
:103D8000C0784000043F04043F040400007088FC35
:103D900008300000001820FF211E0000F008F0008D
:103DA000E018000000211C031E211E0000F00888FE
:103DB000700000001E2123241927211010160E0068
:103DC000000000000000000000000000000000E013
:103DD0001804020000000007182040000002041828
:103DE000E00000000040201807000000404080F084
:103DF000804040000202010F01020200000000F0BA
:103E0000000000000101011F01010100000000008D
:103E10000000000080B07000000000000000000002
:103E2000000000000001010101010101000000008B
:103E30000000000000303000000000000000000022
:103E400080601804006018060100000000E01008FF
:103E50000810E000000F102020100F00001010F8D4
:103E6000000000000020203F202000000070080813
:103E70000888700000302824222130000030088893
:103E8000884830000018202020110E000000C020BB
:103E900010F8000000070424243F240000F80888DC
:103EA000880808000019212020110E0000E0108869
:103EB00088180000000F112020110E00003808089B
:103EC000C83808000000003F0000000000708808AB
:103ED00008887000001C222121221C0000E010082C
:103EE0000810E0000000312222110F00000000C085
:103EF000C000000000000030300000000000008022
:103F00000000000000008060000000000000804011
:103F1000201008000001020408102000404040402A
:103F2000404040000404040404040400000810207D
:103F300040800000002010080402010000704808C2
:103F40000808F0000000003036010000C030C8282A
:103F5000E810E0000718272423140B000000C038E5
:103F6000E0000000203C23020227382008F888885F
:103F700088700000203F202020110E00C03008086B
:103F800008083800071820202010080008F8080842
:103F90000810E000203F202020100F0008F888883B
:103FA000E8081000203F20202320180008F8888807
:103FB000E8081000203F200003000000C03008087F
:103FC0000838000007182020221E020008F8080008
:103FD0000008F808203F210101213F20000808F8CF
:103FE000080800000020203F2020000000000808F2
:103FF000F8080800C08080807F00000008F888C0B2
:1040000028180800203F20012638200008F8080062
:1040100000000000203F20202020300008F8F80099
:10402000F8F80800203F003F003F200008F830C0AB
:104030000008F808203F200007183F00E01008089B
:104040000810E0000F10202020100F0008F80808CA
:104050000808F000203F210101010000E0100808DD
:104060000810E0000F18242438504F0008F8888802
:1040700088887000203F2000030C302000708808E2
:10408000080838000038202121221C00180808F8F0
:10409000080818000000203F2000000008F8080071
:1040A0000008F808001F202020201F000878880042
:1040B00000C83808000007380E010000F80800F8B2
:1040C0000008F800033C0700073C0300081868805C
:1040D0008068180820302C03032C30200838C800D2
:1040E000C83808000000203F200000001008080821
:1040F000C83808002038262120201800000000FEC3
:10410000020202000000007F40404000000C30C06E
:1041100000000000000000010638C000000202029A
:10412000FE000000004040407F000000000004024C
:104130000202040000000000000000000000000077
:104140000000000080808080808080800002020467
:10415000000000000000000000000000000080805F
:10416000808000000019242222223F2008F80080CD
:1041700080000000003F112020110E000000008090
:1041800080800000000E112020201100000000801F
:104190008088F800000E112020103F200000808051
:1041A00080800000001F222222221300008080F065
:1041B000888888180020203F202000000000808090
:1041C00080808000006B94949493600008F80080D5
:1041D00080800000203F210000203F200080989830
:1041E000000000000020203F202000000000008090
:1041F0009898000000C08080807F000008F80000D0
:1042000080808000203F24022D302000000808F824
:10421000000000000020203F2020000080808080DF
:1042200080808000203F20003F20003F8080008071
:1042300080800000203F210000203F20000080807F
:1042400080800000001F202020201F008080008030
:104250008000000080FFA12020110E0000000080DF
:1042600080808000000E112020A0FF8080808000D0
:104270008080800020203F212000010000008080FD
:10428000808080000033242424241900008080E0F2
:10429000808000000000001F2020000080800000BF
:1042A00000808000001F202020103F2080808000A0
:1042B0000080808000010E300806010080800080B0
:1042C000008080800F300C030C300F0000808000D5
:1042D000808080000020312E0E3120008080800000
:1042E0000080808080818E701806010000808080B0
:1042F000808080000021302C22213000000000004E
:10430000807C020200000000003F40400002027C6E
:10431000800000000040403F00000000000000005E
:10432000FF00000000000000FF000000002020202F
:10433000A06000FF60804020180000000000000026
:10434000000000000000000000000000000000006D
:10435000000000000000000000000000000000005D
:10436000000000000000000000000000000000004D
:10437000000000000000000000000000000000003D
:10438000000000000000000000000000000000002D
:10439000000000000000000000000000000000001D
:1043A000000000000000000000000000000000000D
:1043B00000000000000000000000000000000000FD
:1043C00000000000000000000000000000000000ED
:1043D00000000000000000000000000000000000DD
:1043E00000000000000000000000000000000000CD
:1043F00000000000000000000000000000000000BD
:1044000000000000000000000000000000000000AC
:10441000000000000000000000000000000000009C
:10442000000000000000000000000020100806014D
:1044300040807F000102040810100000000000000E
:10444000000000000000000000000000000000006C
:10445000000000000000000000000000000000005C
:10446000000000000000000000000000000000004C
:10447000000000000000000000000000000000003C
:10448000000000000000000000000000000000002C
:10449000000000000000000000000000000000001C
:1044A000000000000000000000000000000000000C
:1044B00000000000000000000000000000000000FC
:1044C00000000000000000000000000000000000EC
:1044D00000000000000000000000000000000000DC
:1044E00000000000000000000000000000000000CC
:1044F00000000000000000000000000000000000BC
:1045000000000000000000000000000000000000AB
:10451000000000000000000000000000000000009B
:10452000000000000000000000001010F1969090C4
:104530001008F744C4444444040000000000000094
:10454000000000000000000000000000000000006B
:10455000000000000000000000000000000000005B
:10456000000000000000000000000000000000004B
:10457000000000000000000000000000000000003B
:10458000000000000000000000000000000000002B
:10459000000000000000000000000000000000001B
:1045A000000000000000000000000000000000000B
:1045B00000000000000000000000000000000000FB
:1045C00000000000000000000000000000000000EB
:1045D00000000000000000000000000000000000DB
:1045E00000000000000000000000000000000000CB
:1045F00000000000000000000000000000000000BB
:1046000000000000000000000000000000000000AA
:10461000000000000000000000000000000000009A
:1046200000000000000000000080601F40807F0448
:104630008544340F344484840000000000000000EE
:10464000000000000000000000000000000000006A
:10465000000000000000000000000000000000005A
:10466000000000000000000000000000000000004A
:10467000000000000000000000000000000000003A
:10468000000000000000000000000000000000002A
:10469000000000000000000000000000000000001A
:1046A000000000000000000000000000000000000A
:1046B00000000000000000000000000000000000FA
:1046C00000000000000000000000000000000000EA
:1046D00000000000000000000000000000000000DA
:1046E00000000000000000000000000000000000CA
:1046F00000000000000000000000000000000000BA
:1047000000000000000000000000000000000000A9
:104710000000000000000000000000000000000099
:10472000000000000000000020908C87EC948414AE
:10473000C847444C54C404000000000000000000BE
:104740000000000000000000000000000000000069
:104750000000000000000000000000000000000059
:104760000000000000000000000000000000000049
:104770000000000000000000000000000000000039
:104780000000000000000000000000000000000029
:104790000000000000000000000000000000000019
:1047A0000000000000000000000000000000000009
:1047B00000000000000000000000000000000000F9
:1047C00000000000000000000000000000000000E9
:1047D00000000000000000000000000000000000D9
:1047E00000000000000000000000000000000000C9
:1047F00000000000000000000000000000000000B9
:1048000000000000000000000000000000000000A8
:104810000000000000000000000000000000000098
:104820000000000000000040201806FF041800FFF0
:1048300092929292FF000000000000000000000031
:104840000000000000000000000000000000000068
:104850000000000000000000000000000000000058
:104860000000000000000000000000000000000048
:104870000000000000000000000000000000000038
:104880000000000000000000000000000000000028
:104890000000000000000000000000000000000018
:1048A0000000000000000000000000000000000008
:1048B00000000000000000000000000000000000F8
:1048C00000000000000000000000000000000000E8
:1048D00000000000000000000000000000000000D8
:1048E00000000000000000000000000000000000C8
:1048F00000000000000000000000000000000000B8
:1049000000000000000000000000000000000000A7
:104910000000000000000000000000000000000097
:104920000000000000002020FF2020F8092A48F89D
:10493000482A09F800000000000000000000000004
:104940000000000000000000000000000000000067
:104950000000000000000000000000000000000057
:104960000000000000000000000000000000000047
:104970000000000000000000000000000000000037
:104980000000000000000000000000000000000027
:104990000000000000000000000000000000000017
:1049A0000000000000000000000000000000000007
:1049B00000000000000000000000000000000000F7
:1049C00000000000000000000000000000000000E7
:1049D00000000000000000000000000000000000D7
:1049E00000000000000000000000000000000000C7
:1049F00000000000000000000000000000000000B7
:104A000000000000000000000000000000000000A6
:104A10000000000000000000000000000000000096
:104A2000000000000010301F080801FD55555555C5
:104A300055FD010000000000000000000000000023
:104A40000000000000000000000000000000000066
:104A50000000000000000000000000000000000056
:104A60000000000000000000000000000000000046
:104A70000000000000000000000000000000000036
:104A80000000000000000000000000000000000026
:104A90000000000000000000000000000000000016
:104AA0000000000000000000000000000000000006
:104AB00000000000000000000000000000000000F6
:104AC00000000000000000000000000000000000E6
:104AD00000000000000000000000000000000000D6
:104AE00000000000000000000000000000000000C6
:104AF00000000000000000000000000000000000B6
:104B000000000000000000000000000000000000A5
:104B10000000000000000000000000000000000095
:104B2000000000000824236AAA2AAA6A2A2A2AEA7C
:104B30000202000000000000000000000000000071
:104B40000000000000000000000000000000000065
:104B50000000000000000000000000000000000055
:104B60000000000000000000000000000000000045
:104B70000000000000000000000000000000000035
:104B80000000000000000000000000000000000025
:104B90000000000000000000000000000000000015
:104BA0000000000000000000000000000000000005
:104BB00000000000000000000000000000000000F5
:104BC00000000000000000000000000000000000E5
:104BD00000000000000000000000000000000000D5
:104BE00000000000000000000000000000000000C5
:104BF00000000000000000000000000000000000B5
:104C000000000000000000000000000000000000A4
:104C10000000000000000000000000000000000094
:104C20000000001011151515FF15151511100F3086
:104C300040F800000000000000000000000000003C
:104C40000000000000000000000000000000000064
:104C50000000000000000000000000000000000054
:104C60000000000000000000000000000000000044
:104C70000000000000000000000000000000000034
:104C80000000000000000000000000000000000024
:104C90000000000000000000000000000000000014
:104CA0000000000000000000000000000000000004
:104CB00000000000000000000000000000000000F4
:104CC00000000000000000000000000000000000E4
:104CD00000000000000000000000000000000000D4
:104CE00000000000000000000000000000000000C4
:104CF00000000000000000000000000000000000B4
:104D000000000000000000000000000000000000A3
:104D10000000000000000000000000000000000093
:104D2000000042422212FA969292929292F202026B
:104D30000200000000000000000000000000000071
:104D40000000000000000000000000000000000063
:104D50000000000000000000000000000000000053
:104D60000000000000000000000000000000000043
:104D70000000000000000000000000000000000033
:104D80000000000000000000000000000000000023
:104D90000000000000000000000000000000000013
:104DA0000000000000000000000000000000000003
:104DB00000000000000000000000000000000000F3
:104DC00000000000000000000000000000000000E3
:104DD00000000000000000000000000000000000D3
:104DE00000000000000000000000000000000000C3
:104DF00000000000000000000000000000000000B3
:104E000000000000000000000000000000000000A2
:104E10000000000000000000000000000000000092
:104E200000404424140C44807F040810282442408D
:104E30000000000000000000000000000000000072
:104E40000000000000000000000000000000000062
:104E50000000000000000000000000000000000052
:104E60000000000000000000000000000000000042
:104E70000000000000000000000000000000000032
:104E80000000000000000000000000000000000022
:104E90000000000000000000000000000000000012
:104EA0000000000000000000000000000000000002
:104EB00000000000000000000000000000000000F2
:104EC00000000000000000000000000000000000E2
:104ED00000000000000000000000000000000000D2
:104EE00000000000000000000000000000000000C2
:104EF00000000000000000000000000000000000B2
:104F000000000000000000000000000000000000A1
:104F10000000000000000000000000000000000091
:104F2000000000F8888C8A89888888F800000000D2
:104F30000000000000000000000000000000000071
:104F40000000000000000000000000000000000061
:104F50000000000000000000000000000000000051
:104F60000000000000000000000000000000000041
:104F70000000000000000000000000000000000031
:104F80000000000000000000000000000000000021
:104F90000000000000000000000000000000000011
:104FA0000000000000000000000000000000000001
:104FB00000000000000000000000000000000000F1
:104FC00000000000000000000000000000000000E1
:104FD00000000000000000000000000000000000D1
:104FE00000000000000000000000000000000000C1
:104FF00000000000000000000000000000000000B1
:1050000000000000000000000000000000000000A0
:105010000000000000000000000000000000000090
:105020000000FF44444444444444FF0000000000A6
:105030000000000000000000000000000000000070
:105040000000000000000000000000000000000060
:105050000000000000000000000000000000000050
:105060000000000000000000000000000000000040
:105070000000000000000000000000000000000030
:105080000000000000000000000000000000000020
:105090000000000000000000000000000000000010
:1050A0000000000000000000000000000000000000
:1050B00000000000000000000000000000000000F0
:1050C00000000000000000000000000000000000E0
:1050D00000000000000000000000000000000000D0
:1050E00000000000000000000000000000000000C0
:1050F00000000000000000000000000000000000B0
:10510000000000000000000000000000000000009F
:10511000000000000000000000000000000040440B
:10512000C4444444401010FF101010F00000000070
:10513000000000000000000000000000000000006F
:10514000000000000000000000000000000000005F
:10515000000000000000000000000000000000004F
:10516000000000000000000000000000000000003F
:10517000000000000000000000000000000000002F
:10518000000000000000000000000000000000001F
:10519000000000000000000000000000000000000F
:1051A00000000000000000000000000000000000FF
:1051B00000000000000000000000000000000000EF
:1051C00000000000000000000000000000000000DF
:1051D00000000000000000000000000000000000CF
:1051E00000000000000000000000000000000000BF
:1051F00000000000000000000000000000000000AF
:10520000000000000000000000000000000000009E
:1052100000000000000000000000000000103C132F
:105220001014B840300E014080403F0000000000E4
:10523000000000000000000000000000000000006E
:10524000000000000000000000000000000000005E
:10525000000000000000000000000000000000004E
:10526000000000000000000000000000000000003E
:10527000000000000000000000000000000000002E
:10528000000000000000000000000000000000001E
:10529000000000000000000000000000000000000E
:1052A00000000000000000000000000000000000FE
:1052B00000000000000000000000000000000000EE
:1052C00000000000000000000000000000000000DE
:1052D00000000000000000000000000000000000CE
:1052E00000000000000000000000000000000000BE
:1052F00000000000000000000000000000000000AE
:10530000000000000000000000000000000000009D
:10531000000000000000000000000000101010FF5E
:105320009020984828090E2848A81800000000007E
:10533000000000000000000000000000000000006D
:10534000000000000000000000000000000000005D
:10535000000000000000000000000000000000004D
:10536000000000000000000000000000000000003D
:10537000000000000000000000000000000000002D
:10538000000000000000000000000000000000001D
:10539000000000000000000000000000000000000D
:1053A00000000000000000000000000000000000FD
:1053B00000000000000000000000000000000000ED
:1053C00000000000000000000000000000000000DD
:1053D00000000000000000000000000000000000CD
:1053E00000000000000000000000000000000000BD
:1053F00000000000000000000000000000000000AD
:10540000000000000000000000000000000000009C
:1054100000000000000000000000000242817F0048
:1054200040404242427E42424240000000000000B2
:10543000000000000000000000000000000000006C
:10544000000000000000000000000000000000005C
:10545000000000000000000000000000000000004C
:10546000000000000000000000000000000000003C
:10547000000000000000000000000000000000002C
:10548000000000000000000000000000000000001C
:10549000000000000000000000000000000000000C
:1054A00000000000000000000000000000000000FC
:1054B00000000000000000000000000000000000EC
:1054C00000000000000000000000000000000000DC
:1054D00000000000000000000000000000000000CC
:1054E00000000000000000000000000000000000BC
:1054F00000000000000000000000000000000000AC
:10550000000000000000000000000000000000009B
:105510000000000000000000000040504E4848FF1E
:1055200048484840F80000FF00000000000000006C
:10553000000000000000000000000000000000006B
:10554000000000000000000000000000000000005B
:10555000000000000000000000000000000000004B
:10556000000000000000000000000000000000003B
:10557000000000000000000000000000000000002B
:10558000000000000000000000000000000000001B
:10559000000000000000000000000000000000000B
:1055A00000000000000000000000000000000000FB
:1055B00000000000000000000000000000000000EB
:1055C00000000000000000000000000000000000DB
:1055D00000000000000000000000000000000000CB
:1055E00000000000000000000000000000000000BB
:1055F00000000000000000000000000000000000AB
:10560000000000000000000000000000000000009A
:1056100000000000000000000000003E0202FF1237
:10562000221E000F40807F000000000000000000EC
:10563000000000000000000000000000000000006A
:10564000000000000000000000000000000000005A
:10565000000000000000000000000000000000004A
:10566000000000000000000000000000000000003A
:10567000000000000000000000000000000000002A
:10568000000000000000000000000000000000001A
:10569000000000000000000000000000000000000A
:1056A00000000000000000000000000000000000FA
:1056B00000000000000000000000000000000000EA
:1056C00000000000000000000000000000000000DA
:1056D00000000000000000000000000000000000CA
:1056E00000000000000000000000000000000000BA
:1056F00000000000000000000000000000000000AA
:105700000000000000000000000000000000000099
:105710000000000000000000000022322AA6A26261
:1057200021110981010000000000000000000000BC
:105730000000000000000000000000000000000069
:105740000000000000000000000000000000000059
:105750000000000000000000000000000000000049
:105760000000000000000000000000000000000039
:105770000000000000000000000000000000000029
:105780000000000000000000000000000000000019
:105790000000000000000000000000000000000009
:1057A00000000000000000000000000000000000F9
:1057B00000000000000000000000000000000000E9
:1057C00000000000000000000000000000000000D9
:1057D00000000000000000000000000000000000C9
:1057E00000000000000000000000000000000000B9
:1057F00000000000000000000000000000000000A9
:105800000000000000000000000000000000000098
:1058100000000000000000004222130B42827E02C2
:10582000020A1223460000000000000000000000F1
:105830000000000000000000000000000000000068
:105840000000000000000000000000000000000058
:105850000000000000000000000000000000000048
:105860000000000000000000000000000000000038
:105870000000000000000000000000000000000028
:105880000000000000000000000000000000000018
:105890000000000000000000000000000000000008
:1058A00000000000000000000000000000000000F8
:1058B00000000000000000000000000000000000E8
:1058C00000000000000000000000000000000000D8
:1058D00000000000000000000000000000000000C8
:1058E00000000000000000000000000000000000B8
:1058F00000000000000000000000000000000000A8
:105900000000000000000000000000000000000097
:105910000000000000002030AC63300088C8A89967
:105920008E88A8C888000000000000000000000069
:105930000000000000000000000000000000000067
:105940000000000000000000000000000000000057
:105950000000000000000000000000000000000047
:105960000000000000000000000000000000000037
:105970000000000000000000000000000000000027
:105980000000000000000000000000000000000017
:105990000000000000000000000000000000000007
:1059A00000000000000000000000000000000000F7
:1059B00000000000000000000000000000000000E7
:1059C00000000000000000000000000000000000D7
:1059D00000000000000000000000000000000000C7
:1059E00000000000000000000000000000000000B7
:1059F00000000000000000000000000000000000A7
:105A00000000000000000000000000000000000096
:105A1000000000000022672212128040300F0000B8
:105A20003F40407100000000000000000000000046
:105A30000000000000000000000000000000000066
:105A40000000000000000000000000000000000056
:105A50000000000000000000000000000000000046
:105A60000000000000000000000000000000000036
:105A70000000000000000000000000000000000026
:105A80000000000000000000000000000000000016
:105A90000000000000000000000000000000000006
:105AA00000000000000000000000000000000000F6
:105AB00000000000000000000000000000000000E6
:105AC00000000000000000000000000000000000D6
:105AD00000000000000000000000000000000000C6
